:020000040800F2
:100000000050002005100008BD100008C1100008B5
:10001000C5100008C9100008CD100008000000003D
:10002000000000000000000000000000D1100008E7
:10003000D510000800000000D9100008410F00088A
:100040005F100008611000086310000865100008C8
:1000500067100008691000086B1000086D10000898
:100060006F10000871100008731000087510000868
:1000700077100008791000087B1000087D10000838
:100080007F10000881100008831000088510000808
:10009000DD100008891000088B1000088D10000882
:1000A0008F100008911000089310000895100008A8
:1000B000610F0008991000089B1000089D100008AF
:1000C0009F100008A1100008A3100008A510000848
:1000D000A710000839140008AB100008E514000848
:1000E000AF100008B1100008E110000810B5054C71
:1000F000237833B9044B13B10448AFF300800123D4
:10010000237010BD60030020000000008033000851
:10011000084B10B51BB108490848AFF300800848E8
:10012000036803B910BD074B002BFBD0BDE810409E
:10013000184700BF0000000064030020803300085F
:100140006003002000000000154B002B08BF134B7C
:100150009D46A3F5803A00218B460F461348144A6A
:10016000121A02F0F7FB0F4B002B00D098470E4BF2
:10017000002B00D098470020002104000D000D48FE
:10018000002802D00C48AFF3008002F0BDFB200035
:10019000290000F043FC02F0A3FB00BF00000800B0
:1001A000005000200000000000000000600300205C
:1001B000F40A0020000000000000000040F0BF60D2
:1001C000024B40F40030D860704700BF00ED00E003
:1001D000C3785BB9037801215A09164803F01F035D
:1001E000203201FA03F340F82230704730B4124B4A
:1001F0008278D9684478C9430F23C1F30221C1F141
:100200000405CB40AC401340027823431B0102F1AC
:100210006042DBB202F5614282F8003303780122CA
:1002200003F01F0003495B09824041F8232030BCE2
:10023000704700BF00E100E000ED00E08379002B93
:100240002BD010B41F4B01681A6822EA01021A6011
:100250005A68016822EA01025A600279016802F1D3
:10026000804202F582321468214311609A68016865
:1002700022EA01029A60DA68016822EA0102DA6081
:100280004279102A14D002F1804303F582330268C8
:1002900019680A431A6010BC70470379016803F1BA
:1002A000804303F582331A6822EA01021A6070471C
:1002B000996802680A439A600268D9680A43DA605A
:1002C00010BC704700040140014B5861704700BFEB
:1002D00000040140CB782DE9F04103F00F06DB0666
:1002E00048BF8B780C8848BF1E4314F0FF0F26D000
:1002F0000568002301274FF00F0803E00133082BA6
:100300001BD00C8807FA03F232EA0404F6D19C00F1
:1003100091F803E008FA04FC25EA0C0506FA04F457
:10032000BEF1280F45EA040538D0BEF1480F03F1AD
:10033000010308BF0261082BE3D105600C88FF2C84
:100340002AD94568002301274FF00F0C03E0013341
:10035000082B20D00C8803F1080207FA02F232EAD7
:100360000404F4D191F803E09C00BEF1280F04BF0F
:10037000426191F803E00CFA04F8BEF1480F03F172
:10038000010325EA080506FA04F408BF0261082BF8
:1003900045EA0405DED14560BDE8F0814261ADE784
:1003A0004FF6FF710222042301808270C3707047F0
:1003B00001617047416170470AB94161704701614D
:1003C000704700BF30B40028184B00F44012B4BF8F
:1003D000DB695B68B2F5401F84B21ED0C20213D540
:1003E000C0F303450322AA4023EA020343F07063EB
:1003F00019B1420D1201944023430C4A0028B4BFA6
:10040000D361536030BC7047420D120104FA02F20E
:1004100023EA020343F07063EAE7044D23F07063BC
:100420006A6822F070626A60E2E700BF0000014083
:10043000014B1860704700BF20000E42014B18604E
:10044000704700BFD8004242064B002201281A70B4
:100450001A7005D0042802D105221A70704770471F
:100460001870704720100240024A136A1843106245
:10047000704700BF00100240014B1860704700BF7A
:100480003C04424230B4214A536803F00C03042B6D
:1004900006D0082B25D01BB11D4A1346026001E08F
:1004A0001B4B0360194A1B4C51681B4DC1F30311D0
:1004B000615CCB4043605168C1F30221615C23FA67
:1004C00001F181605168C1F3C221615CCB40C3601E
:1004D0005268C2F38132AA5C30BCB3FBF2F3036111
:1004E000704753685168C3F38343C90303F10203A0
:1004F00007D55268920304D4054A02FB03F3036054
:10050000D0E7064A02FB03F30360CBE7001002408A
:1005100000127A00040000200000002000093D00C5
:1005200029B9054A936923EA000090617047024B9C
:100530009A691043986170470010024029B9054A32
:10054000D36923EA0000D0617047024BDA69104397
:10055000D8617047001002404309012B0BD0022BD9
:10056000094B00F01F000CBF1B6A5B6A23FA00F006
:1005700000F001007047044B00F01F001B6823FAD5
:1005800000F000F00100704700100240074A118B94
:10059000938B108B89B280B281429BB21DBF938B2B
:1005A0009BB243EA004043EA014070470028004004
:1005B000084AC0F30341938880B29BB243F0100312
:1005C000938011819081938823F010031B041B0CEE
:1005D0009380704700280040024A93889B06FCD510
:1005E000704700BF0028004005490A468B8823F069
:1005F00008031B041B0C8B8093881B07FCD57047DA
:1006000000280040254A038890429BB212D002F590
:10061000006290420ED0B0F1804F0BD0A2F598321C
:10062000904207D002F58062904203D002F58062CA
:10063000904203D14A8823F070031343184A904232
:1006400024D002F58062904220D0CA8823F44073FF
:100650009BB2134303808A88104B82850A88984294
:1006600002850ED00F4B98420BD003F540639842A1
:1006700007D003F58063984203D003F58063984266
:1006800001D10B7A038601238382704703808B8814
:1006900083850B880385012383827047002C0140EA
:1006A00000100040003401404FF6FF7200238280AA
:1006B0000380C38043800372704700BF038829B959
:1006C00023F001031B041B0C038070479BB243F013
:1006D00001030380704700BF83899BB21AB923EAE4
:1006E000010181817047194381817047FFF7F4BF91
:1006F000C94389B20182704730B504460D46038A6A
:10070000CA889BB223F440531343038282890B8926
:10071000888892B24989034322F4B0520B4322F0F5
:100720000C0213439BB2A381A38AAA899BB223F430
:10073000407387B01343A38201A8FFF7A3FE049977
:100740001A48039BA289844208BF0B4612F4004F4B
:100750002A6803EB830314BF5200920003EB830368
:10076000B3FBF2F3124DA189A5FB032064224009DB
:1007700000FB12330A044FEA00100AD41A01323285
:10078000A5FB0223C3F3431303439BB2238107B0AA
:1007900030BDD9003231A5FB0131C1F3421242EA2A
:1007A00000039BB2238107B030BD00BF0038014079
:1007B0001F85EB5100234FF416510C22016042813A
:1007C0008380C38003818381704700BF838929B9F7
:1007D00023F400531B041B0C838170479BB243F42A
:1007E00000538381704700BF10B401F01F04C1F3B0
:1007F00042110123012903FA04F30FD002290CBF8F
:10080000103014302AB9026822EA0303036010BCD6
:10081000704702681343036010BC70470C30F1E767
:10082000C1F30801818070478088C0F308007047D9
:10083000C1F3421210B4012301F01F04012A03FA8C
:1008400004F315D0022A0CBF028A828A92B21340A6
:10085000028892B24BB10123090A03FA01F10A425C
:1008600014BF1846002010BC7047184610BC7047D3
:10087000828992B21340EBE7B2B1002370B41E46F6
:10088000541EE4B201346400020F092A02F130055B
:1008900086BF3732CA54CD54CA180233A3424FEA36
:1008A00000105670F0D170BC704700BF10B5012128
:1008B00082B02020FFF734FE4FF40074032214238B
:1008C00001A90D488DF806208DF80730ADF80440D9
:1008D000FFF700FD4FF48020FFF7F6FC074B0821DF
:1008E00001224FF4802418461C6059719A71FFF759
:1008F000A5FC02B010BD00BF00140140F4030020AD
:1009000008B50020FFF79AFDBDE8084001214FF42B
:100910000000FFF713BE00BF064B9B7A23B9064BBE
:1009200001221A6000F0E0BB034B05221A6000F0C0
:10093000DBBB00BFA00A00209C03002010B54FF4D1
:10094000A06082B0FFF73AFC01241421022201A822
:1009500000238DF804108DF805208DF806308DF8F1
:100960000740FFF735FC2A2301A88DF805408DF8D4
:100970000430FFF72DFC02B010BD00BF4FF4007132
:1009800010B90348FFF714BD0148FFF713BD00BFBE
:10099000001401400A4B0B4A1B681068181800D15C
:1009A000704710B5084B08221C680849FFF764FF20
:1009B0002046BDE8104004220549FFF75DBF00BF97
:1009C000E8F7FF1FF0F7FF1FECF7FF1F12020020F0
:1009D000220200203F2901D90020704738B5084B7A
:1009E0008CB222460025C0211D6001F021FC214669
:1009F000012001F0D7FE012001F076FE012038BD74
:100A00001400002008B5044B002203201A6001F0F6
:100A10007FFE012008BD00BF150000202DE9F04F2A
:100A20009BB0FFF743FFFFF76BFFFFF787FF01F076
:100A300053FA01211D20FFF773FD06A8FFF7B0FC54
:100A40008B4E1022022306A98A484FF400548DF8D9
:100A50001B208DF81A30ADF81840FFF73BFC00F072
:100A6000C5FB854800F0B6FA33688449844AA1FB87
:100A7000031384489B0901210025013B0724F0272B
:100A8000536080F82370084695601460FFF756FDA8
:100A90001C2301240DEB03008DF81C308DF81E5033
:100AA0008DF81D408DF81F40FFF792FB0AA8FFF755
:100AB000FBFD42F20F72336873480AA9A0FB0303DF
:100AC0005B0B013B4FF08040ADF82830ADF82C2097
:100AD000ADF82A50ADF82E50FFF794FD224621467E
:100AE0004FF08040FFF702FE21464FF08040FFF7B5
:100AF000E5FD21464FF0C050FFF720FD2046FFF7EF
:100B000097FC2046FFF7A0FC4120FFF725FD0028B9
:100B1000FAD04FF48070FFF7A7FC0120FFF7ACFC80
:100B2000FFF762FDFFF758FD47F6FF70FFF740FD46
:100B3000FFF752FD554C564FDFF874A1DFF86CB14A
:100B4000544D4FF00008012600224FF480515248C6
:100B5000FFF732FC3B68052B13D02A684FF4005195
:100B6000003218BF01224348FFF726FC2B68C82239
:100B7000B3FA83F35B092B6022602368002BFCD15E
:100B8000E1E7FFF73FFFDAF8003033B1434B1B7862
:100B9000012B23D00023CAF80030002ED4D14048C6
:100BA00000F040FC002800F085803E4800F03AFC50
:100BB0000028C9D13B4800F0F5FB0A28814600F027
:100BC0004A814A4638490DA801F0CCFE0DA801F033
:100BD000EDFEC1B20DA8FFF7FDFEB5E7002E40F017
:100BE0002D819BF80020314B312A00F030811A789A
:100BF000322A00F03C811A78332A00F034811A78C6
:100C0000342A00F03C811A78352A00F034811B78B0
:100C1000362B00F044819BF80020244B372A00F04B
:100C20003A811A78382A00F058811A78392A00F067
:100C30004F811A782F2A00F03A811A78302A00F072
:100C400032811978C9B20D2900F01D81DAF800301F
:100C5000002B9FD04FF000091BF80910064800F048
:100C6000B7FBDAF8003009F101099945F4D391E7AF
:100C70000C0200200010014040090020D34D6210FA
:100C800010E000E000ED00E05917B7D18403002028
:100C90009C0300207C030020000C01401400002075
:100CA000A8060020F407002074320008B4030020D6
:100CB000900A00208B4800F075FB1AAB434408F102
:100CC0000108B8F1030F03F8480C7FF76EAF9DF8E9
:100CD00022309DF82080194604939DF823309DF81A
:100CE000219018460593804B1A6843460191029063
:100CF0007E49CDF800900DA801F034FE0DA801F05A
:100D000055FEC1B20DA8FFF765FE774B78491A680A
:100D10000DA801F027FE0DA801F048FEC1B20DA8F4
:100D2000FFF758FE734800F05BF940F2DC53236094
:100D30002368002BFCD1704800F052F940F2DC53DC
:100D40006E4A13602368002BFCD16D4800F048F90F
:100D500040F2DC53694A13602368002BFCD16948D8
:100D600000F03EF940F2DC53644A13602368002B24
:100D7000FCD1654800F034F940F2DC535F4A13605F
:100D80002368002BFCD1614800F02AF940F2DC53C3
:100D90005A4A13602368002BFCD15D4800F020F90B
:100DA00040F2DC53554A13602368002BFCD14E4BB4
:100DB00058491A680DA801F0D5FD0DA801F0F6FDFF
:100DC000C1B20DA8FFF706FE534800F009F940F242
:100DD000DC534A4A13602368002BFCD1059B424632
:100DE0000193049B4D4900930DA84B4601F0BAFDB9
:100DF0000DA801F0DBFD0DAB02464949494801F061
:100E0000B1FD40F2DC533D4A13602368002BFCD156
:100E10004448984600F0E4F81A21434800F0D8FA14
:100E2000314B42491A680DA801F09CFD0DA801F054
:100E3000BDFDC1B20DA8FFF7CDFDB6E63C4801F0FF
:100E4000B5FDC1B23A48FFF7C5FD0026A2E6294824
:100E500000F0C6F89EE60D2301210DA8ADF8343050
:100E6000FFF7B8FDADE6264800F0BAF892E6224852
:100E700000F0B6F88EE6244800F0B2F88AE6214881
:100E800000F0AEF886E6284800F0A2FA0A212648CB
:100E900000F09EFA7EE61E4800F0A2F87AE61B48B3
:100EA00000F09EF876E6234800F09AF872E62248B1
:100EB00001F07CFD204B024619491A4801F052FD11
:100EC000184800F08DF81A21174800F081FA61E601
:100ED0001A4801F06BFD194BEDE70F4800F080F860
:100EE00058E600BFA8060020800300200832000852
:100EF00030320008580100208800002084030020C0
:100F000098010020680100208C010020A801002029
:100F10003000002048320008A8000020DC0100203A
:100F2000B80000205C040020400900206032000866
:100F30001800002098000020B4010020600000206C
:100F4000054B1A6812B11A68013A1A60034A13680D
:100F500001331360704700BF84030020800300202A
:100F6000F0B50121ADF5017D4FF08040FFF7C0FBEA
:100F7000144B0624FF20587019460026012503272C
:100F8000224611489F701E701E71DD705D711C62DB
:100F900000F0DEFA0D4B1B68052B02D00DF5017D2C
:100FA000F0BDFFF7F3FA0A490246684601F0DAFCA1
:100FB000684601F0FBFCC1B26846FFF70BFD0DF57A
:100FC000017DF0BD000400205C0500209C03002092
:100FD00078320008014B1860704700BF24040020DD
:100FE00070B5044601F0E2FC002808DD044E251827
:100FF00014F8011B306800F0EBF9AC42F8D170BD79
:10100000240400200649074A074B9A42BEBF51F804
:10101000040B42F8040BF8E70448804704480047F3
:101020008C3300080000002060030020E910000855
:10103000490100081F49204A002301E041F8043B10
:101040009142FBD3FFF7EAFCFEE7FEE7FEE7FEE78F
:10105000FEE7FEE7FEE7FEE7FEE7FEE7FEE7FEE768
:10106000FEE7FEE7FEE7FEE7FEE7FEE7FEE7FEE758
:10107000FEE7FEE7FEE7FEE7FEE7FEE7FEE7FEE748
:10108000FEE7FEE7FEE7FEE7FEE7FEE7FEE7FEE738
:10109000FEE7FEE7FEE7FEE7FEE7FEE7FEE7FEE728
:1010A000FEE7FEE7FEE7FEE7FEE7FEE7FEE7FEE718
:1010B000FEE7FEE760030020F40A0020704700BF4F
:1010C000FEE700BFFEE700BFFEE700BFFEE700BF90
:1010D000704700BF704700BF704700BF00F0DEBF21
:1010E0004FF48020FFF7F0B830B43C4B3C4918680F
:1010F00082B040F0010018605D680020294059600E
:1011000019684FF41F0421F0847121F480311960B3
:1011100019681A4621F480211960596821F4FE01EA
:1011200059609C6000900190196841F48031196009
:1011300003E0009BB3F5A06F09D0136803F40033FC
:101140000193009B01330093019B002BF1D0234BB3
:101150001B6813F4003318BF01230193019B012B7B
:1011600006D0204B4FF000629A6002B030BC70474E
:101170001D4A1A4B1068194640F0100010601068A4
:1011800020F003001060106840F0020010605A6800
:101190005A605A685A605A6842F480625A605A68C3
:1011A00022F47C125A605A6842F4E8125A601A68B3
:1011B00042F080721A600B68084A9B01FBD5114609
:1011C000536823F003035360536843F002035360F2
:1011D0004B6803F00C03082BFAD1C2E70010024061
:1011E0000000FFF800ED00E0002002402DE9F04F84
:1011F000012189B04FF48020FFF7A0F9DFF8A0812A
:1012000001214FF48040FFF78BF901210420FFF703
:10121000D9F818260323404602A940228DF80A3047
:101220000193594FADF808208DF80B604FF0040B77
:10123000FFF750F8802202A94046ADF808208DF84B
:101240000BB0FFF747F804A80024FFF7B3FA4FF0FC
:101250000C094FF4165A04A93846CDF810A0ADF881
:101260001A90ADF81440ADF81640ADF81840ADF83E
:101270001C40FFF741FA38460121FFF7A7FA012584
:101280000DEB090025228DF80C208DF80E408DF80D
:101290000D408DF80F50FEF79BFF2A46384640F26E
:1012A0002551FFF7A1FA2A46384640F22771FFF789
:1012B0009BFA019B4FF4806202A94046ADF80820DA
:1012C0008DF80A308DF80B60FFF704F82F4E4FF4BD
:1012D000006302A94046ADF808308DF80BB0FEF768
:1012E000F9FF04A8FFF766FA04A93046CDF810A06C
:1012F000ADF81A90ADF81440ADF81640ADF81840AE
:10130000ADF81C40FFF7F8F929463046FFF75EFAC2
:1013100027230DEB09008DF80C308DF80E408DF869
:101320000D408DF80F50FEF753FF2A46304640F22D
:101330002551FFF759FA2A46304640F22771FFF748
:1013400053FA13481349144A144BA0F84441A0F827
:10135000464180F8484107600F60A1F84441A1F878
:10136000464181F84841A2F84441A2F8464182F83A
:10137000484116601E60A3F84441A3F8464183F833
:10138000484109B0BDE8F08F0038014000480040F6
:10139000A80600205C050020F4070020400900207A
:1013A000000C0140B0F84631B0F8441102469942B1
:1013B0000CD0591C89B20344B1F5A07F18792ABF1B
:1013C0000023A2F84611A2F846317047002070476A
:1013D00010B5B0F844210446531C9BB2B3F5A07F6E
:1013E00025BF00200346A0F84431A4F84401B4F816
:1013F0004601984210D022441171206840F22771B2
:10140000FFF716FA00B110BD2068012240F22771E3
:10141000BDE81040FFF7E8B90123A4F8442184F89F
:101420004831E8E7B0F84421B0F84601101AB0FAA4
:1014300080F04009704700BF38B540F2255126487A
:10144000FFF7F6F9F0B940F227712348FFF7F0F9FA
:10145000B8B1224AB2F84631B2F8441199422CD0C0
:10146000581C80B21344B0F5A07F19792ABF00231D
:10147000A2F84601A2F846311748BDE83840FFF708
:10148000CFB938BD1448FFF7CFF91549C0B2B1F84C
:101490004421134D531C9BB2B3F5A07F22BF0024FF
:1014A0002346A1F84441B1F8464138BFA1F8443180
:1014B0009C420AD00A441071C5E7002240F227710D
:1014C000BDE838400448FFF78FB90123A5F844214F
:1014D00085F84831EEE700BF003801405C05002088
:1014E000A806002008B540F225511748FFF7A0F9DB
:1014F000F0B940F227711448FFF79AF9B8B1134ACE
:10150000B2F84631B2F84411994215D0581C80B255
:101510001344B0F5A07F19792ABF0023A2F8460131
:10152000A2F846310848BDE80840FFF779B908BD80
:101530000548FFF779F9DCE7002240F22771BDE8A2
:1015400008400148FFF750B900480040400900201A
:10155000002A0BDD70B506460C468D1814F8011BE9
:101560003046FFF735FFA542F8D170BD704700BF88
:1015700008B538B1064B1B681B689847054B1868BF
:101580000A3008BD034B01221B681A8208BD00BF48
:10159000BC0A0020C00A002008B538B1064B1B6801
:1015A0009B689847054B18680C3008BD034B012217
:1015B0001B681A8208BD00BFBC0A0020C00A0020B8
:1015C00008B51F4B002832D01E481A680021018040
:1015D000137813F07F0316D0012B27D0022B24D1D0
:1015E000527902F00F039B0003F1804303F5B843E7
:1015F00012061B681FD403F44053B3F5805F0ED16D
:10160000012303700BE0527A930654BF0378022340
:1016100051064CBF43F0010323F0010303700A4B52
:101620001B681B699847074808BD084608BD1B682A
:1016300002221A8208BD03F03003102BEFD1DFE73E
:10164000C00A00208C0A0020BC0A00202DE9F041CD
:10165000244F3C68258A2DB9267A042E2AD0A38AE5
:10166000042603E0A38A9D42FAD902269D4228BFA0
:101670001D46A369284698478046002001F0F4F8EB
:101680002A460146404600F0D3FD2946002001F0DD
:1016900089F8638A228A1449521B1D44134B228203
:1016A000658230204FF440523C6808801A802672D0
:1016B000BDE8F0810E4B1A78012A06D00A4B1022A1
:1016C00007261A802672BDE8F0810A490A4A09688D
:1016D000054889B20A445200156030223C681D70EA
:1016E0000280E4E7C00A0020C80A0020C60A0020E1
:1016F00088030020505C0040023000200B4B0C4A55
:101700001B685178DA78914201D2022070479978AB
:101710000029FAD110B59C880CB1022010BD0549F2
:101720009A720B685B689847204610BDC00A00207B
:10173000F0020020BC0A002038B5104A104C126894
:101740002368D97858799369984723689A7A0AB9AF
:10175000022038BD0028FBD11A79002AF8D19D78E3
:10176000002DF5D1074B1B68DB6898472368284696
:101770005979DA78D9721A7338BD00BF980A0020F7
:10178000C00A0020BC0A002038B5314B1B6818780D
:1017900010F07F0003D0022806D0022038BD5A7A0C
:1017A00022F020025A7238BD5A88002AF6D11A79DE
:1017B000002AF3D15A7922F080008400150604F142
:1017C0008041244D01F5B84109682D784CBF01F0E6
:1017D000300101F44051A842DFD20029DDD09B7ACC
:1017E000002BDAD004F1804404F5B84412062368D3
:1017F00009D503F03003102B1ED0174B1B685B6913
:101800009847002038BD03F44053B3F5805FF4D10E
:10181000D8B9124B93F82C1000F0D2FF236823F4B0
:10182000804323F070039BB283F4405343F400439E
:1018300043F080032360E0E7C4B2204600F0A0FF3D
:101840002046302100F01CFFD7E700F087FFE5E7D6
:10185000C00A0020F0020020BC0A00206C02002018
:1018600038B5224B1868427922F080018C001506A9
:1018700004F180431E4D03F5B8431B682D784CBF1F
:1018800003F0300303F44053A94201D3022038BDD2
:1018900041880029FAD1002BF8D0837A002BF5D0AB
:1018A00004F1804404F5B8441206236811D523F4EA
:1018B000E04323F040039BB283F0100343F4004362
:1018C00043F0800323600B4B1B689B699847002003
:1018D00038BD23F4804323F070039BB283F480531C
:1018E00043F4004343F080032360ECE7C00A002088
:1018F000F0020020BC0A0020054B1B685A8A10B178
:1019000008681044704789888A1A1A82704700BF95
:10191000C00A002010B50C4B002093F82C1000F0EA
:101920004FFF0A4B1B68187A082806D10849094B53
:101930004FF4805410220C801A80A0F10900B0FAF4
:1019400080F0400910BD00BF6C020020C00A0020DA
:10195000C60A0020C80A002070B5A24DA24A2B6812
:1019600011681A7A82B0092A3ED0A04A89B20A4484
:1019700052001488640004F1804404F5C0442278C5
:101980001A702B6862785A70A0882E6800F090FF59
:10199000708020892E6800F08BFFB080A2892B68B0
:1019A0000121DA80197222B35878062800F0848069
:1019B00000283AD15988002900F098808C4C23687F
:1019C0001B699847032800F0EA804FF6FF722C68E5
:1019D000238A934200F08480022836D108232372A0
:1019E000FFF798FF02B070BDDA8801211972002A52
:1019F000DAD11A785C7812F07F0236D0012A00F032
:101A0000BF80022A00F0E180794B20461B685B69A9
:101A10009847032800F0C38000283ED02B68082296
:101A20001A72FFF777FF02B070BD082870D11A78DC
:101A30005206C3D16F4A00209A61588290474FF6F0
:101A4000FF722C68238A93424AD0002BC6D094F9A7
:101A50000020002A7FDB684A4FF4405103231180A5
:101A60002372FFF757FF02B070BD092C00F0E18030
:101A7000052C00F09B80032C00F0CA80012CC3D100
:101A8000DA78012AC0D19A88002ABDD15B7A9B06F8
:101A9000BAD5FFF779FE0028B6D1534A574B1268E2
:101AA000002192B213445B001960554A30212B6823
:101AB000118006221A72B4E71A7856067FF47EAFB8
:101AC0009A784B4C012A00F0BA80022A6BD0032A84
:101AD0007FF475AF2268526A002AACD106206EE707
:101AE00009232372FFF716FF02B070BD5A6822F473
:101AF0007F42B2F5003F7FF461AF187810F07F00AD
:101B000040F0A0809A88002A7FF458AF3D4A92E7BF
:101B10000A287FF453AF1A7802F07F02012A7FF47B
:101B20004DAF9A7A002A3FF449AF598800297FF4D3
:101B300045AF5A682E4C22F47F42B2F5803F7FF4C5
:101B40003EAF22685879936998472B68002840F087
:101B5000B6802D4A6FE7E288019201998B4217D82F
:101B6000934276D2224A126892F82C108AB293429B
:101B700074D2264B00211970A282FFF767FD70E72F
:101B80000B2C7FF441AFFFF7D7FD002885D03BE752
:101B9000174B019A1B68228293F82C20ECE72B68E4
:101BA00009221A723DE72268126A95E793F9032029
:101BB000002A07DB9A782AB99A881AB99A7A002AF1
:101BC0003FF46BAF08221A722BE7012C3FF461AF90
:101BD000032C7FF419AFFFF743FE00283FF45DAFFD
:101BE00012E700BFC00A0020505C00400430002013
:101BF000980A002071150008C60A00200230002053
:101C0000C80A0020C11500089915000888030020A3
:101C1000DA78012A7FF4F8AE9A88002A7FF4F4AECD
:101C20005A7A284942F0200209685A72CB699847CB
:101C300033E7FFF763FD00283FF42FAFE4E62268A7
:101C4000D26949E701282FD0022811D008461E4C3E
:101C5000B5E61D4B1B6893F82C208DE793FBF1F044
:101C600001FB1033002B87D1184B0121197083E73A
:101C7000587900F00F018A00040602F18042144CEA
:101C800002F5B842126824784CBF02F0300202F428
:101C90004052A14206D210F0700003D1002A7FF416
:101CA00035AF8BE6002089E6074C587922689369A6
:101CB00098472B6818B99A7A002A7FF427AF58788A
:101CC0007DE600BFBC0A0020980A0020880300209F
:101CD000F0020020F8B5304D2C68237A022B07D093
:101CE000042B05D0032B09D0052B07D0072B33D0AD
:101CF00008232372BDE8F840FFF70CBEA369228ACF
:101D0000B3B1B2B1A68A964228BF1646304698476C
:101D1000228A638A921B3344074622826382002010
:101D200000F0B2FD32460146384600F095FA228AAC
:101D3000CAB9A38A33B319492A68194B062010720D
:101D40001A68184B92B213445B0000221A602C6888
:101D50003022237A0A80CCE7134B1B68DB68984754
:101D60002C680823C5E7114B00214FF44052084668
:101D70001A8000F017FD238AA28A084930209A426F
:101D8000088003D82C6803232372B2E7002BD3D03A
:101D90002C6805232372ACE7C00A0020C80A002083
:101DA000505C004002300020980A0020C60A002043
:101DB000F8B5234C23681A7A022A17D0042A15D0C2
:101DC000062A05D008221A72BDE8F840FFF7A2BD26
:101DD0005A78052A13D01B4B1B689B6898472368C9
:101DE00008221A72BDE8F840FFF794BDFFF72EFCF9
:101DF00023681A7A1A72BDE8F840FFF78BBD1A788B
:101E000012F07F02E7D11049DF780E7876B10F48E3
:101E100040F60F73056842F400412B4041F0800109
:101E200001320B43964240F8043BF1D1084A47F097
:101E30008007084B17601B681B6A9847CBE700BFF9
:101E4000C00A0020980A0020F0020020005C004038
:101E50004C5C0040BC0A002070B40C4B1E787EB174
:101E60000B4C002240F60F73256842F400412B40D2
:101E700041F0800101320B43964244F8043BF1D11A
:101E8000044B40F08000186070BC7047F0020020E6
:101E9000005C00404C5C0040704700BF014B0122D9
:101EA0001A60704714000020084B10B5012203206F
:101EB0001A6000F0FBFC0346054C024623604FF419
:101EC00088710448BDE8104000F0C6B91500002034
:101ED000900A0020B403002070B4074A074908485C
:101EE000084E094C094B02251572086023603260C8
:101EF0001B6870BC184700BFA00A0020BC0A002065
:101F00009C020020C00A0020980A00206C020020D9
:101F10002DE9F04FDFF878A1DFF878915746C846F1
:101F200085B00023DFF870B1544DADF80E30DBF80A
:101F30000030534C99B21B04524E504AAAF800107C
:101F400040F190803B8803F00F03990001F180413C
:101F500001F5B84189F80030002B2FD14BF6BF7343
:101F6000216889B22980298801F0300131802988CF
:101F700001F44051298021680B4083F4005383F021
:101F8000200343F4004343F0800323603B88D906D9
:101F900041D523689BB2ADF80E30BDF80E301B055D
:101FA00063D4BDF80E301804C1D540F68F7301928A
:101FB00021680B402360FFF78DFE34E00B689BB275
:101FC000ADF80E30BDF80E30180417D4BDF80E3041
:101FD0001A06ACD548F60F7299F800302A499B00D2
:101FE00003F1804303F5B843186802401A6099F87A
:101FF0000030013B51F82330984798E740F68F7343
:102000000868224A03400B6098F80030013B52F800
:1020100023309847DAE748F60F73019221680B40A6
:102020002360FFF7C5FE4BF6BF73019A2068118845
:1020300012880340C90448BF83F480539704328850
:1020400048BF83F40053D506328848BF83F010039D
:10205000940648BF83F0200343F40043084A43F04A
:102060008003136005B0BDE8F08F40F68F730192D6
:1020700021680B402360FFF76FFCD4E7C60A0020FD
:10208000005C0040C80A00202C020020480200200A
:10209000CA0A00209C0A0020445C004030B559491F
:1020A000594C0B68594D9BB2238022882B8889B0EC
:1020B0001A40920508D54FF6FF5355480B60027839
:1020C0002B880132D2B20270228802F400421342FD
:1020D00040F09480228802F48062134240F08580B0
:1020E000228802F40052134204D04DF6FF72454B91
:1020F0001A602B88228802F4805213426CD1228805
:1021000002F4006213420BD0424B1B78002B60D1CB
:10211000022000F033FA4FF2FF723A4B1A602B881C
:10212000228802F4807213420DD04FF6FF61354AC7
:10213000394B11601B6813F4004306D1374A136012
:10214000072000F01BFA09B030BD34490B68013399
:102150000B600B68032BF3D952F8043C043A13F0DC
:102160000803EDD112682E4D92B22E482A6050F825
:10217000042B08AC04EB8304013392B2082B44F81F
:10218000202CF4D12B68284A43F001032B602B68E4
:102190001C489BB213602B6823F001032B602B6853
:1021A0009BB213600368174A5B05FBD54FF6FF33FC
:1021B0001C481360002308AA02EB830252F8202C6B
:1021C000013392B2082B40F8042BF4D100230B60AA
:1021D000B6E700F07BF99EE74EF6FF72094B002050
:1021E0001A6000F0CBF92B8889E74FF6FF31054ADA
:1021F0000E4B11605B6898472B8871E7FFF788FEEC
:102200002B8867E7445C0040CA0A0020C40A00200B
:1022100090030020F2020020485C0040940300205C
:102220008C030020005C0040405C00406C020020F9
:10223000013252100ED010B401F1005101F540519D
:102240004900002330F8024B21F8234001339A4221
:10225000F8D110BC704700BF01F10051013201F507
:10226000405152104FEA410105D051F8043B013A68
:1022700020F8023BF9D17047034B9B7A13B1034B13
:1022800005221A60704700BFA00A00209C030020AE
:10229000014B04221A6070479C030020034B1A78FC
:1022A000202A04BF00221A70704700BF9803002044
:1022B000704700BF212810B504D02028034610D055
:1022C000022010BD0E4B1A68137803F07F03212BF8
:1022D000F6D10C490024916154822046884720465B
:1022E00010BD074A1268117801F07F01212903D03F
:1022F000054A0220137010BD034804490370E9E742
:10230000C00A00205D230008980300204523000830
:10231000074B1B681B7803F07F03212B01D00220A1
:10232000704700F0DF00022814BF02200020704731
:10233000C00A002009B10220704701288CBF02208A
:102340000020704708B103487047034B08221B6800
:102350001A827047E8020020C00A0020FFF7F2BF8F
:1023600010B5FEF717FB054B00241B689C7200F0AC
:1023700095F800F0A3FA024B1C6010BDC00A0020C3
:102380009C03002010B5334B334A1B68D2790024DC
:102390005A729C72DC72204600F05CF920464FF4C1
:1023A000007100F05FF92046102100F069F9204625
:1023B000402100F049FA8021204600F033FA2046FF
:1023C00000F0CAF9254B204693F82C1000F0F8F9DC
:1023D000204600F09DF92146012000F043F9C0217C
:1023E000012000F01FFA2021012000F049F92146C8
:1023F000012000F05FF94FF4C061022000F032F9D3
:102400004FF48071022000F00DFA2146022000F006
:1024100051F92021022000F033F92146032000F079
:1024200021F94FF48871032000F00EFA40210320B7
:1024300000F0C6F94FF44051032000F03BF921466B
:10244000032000F01DF92046FFF706FD044B012292
:102450001A6010BDC00A0020003300086C02002082
:102460009C0300200149FFF747BA00BFC0020020CB
:102470000149FFF741BA00BF64020020054B1B6809
:10248000DB78042B04D8044901EBC301FFF734BA0D
:1024900000207047C00A0020C802002038B5012083
:1024A000FEF76CFA064D074B074C00224FF4E05143
:1024B000012018601A602A6021801960104638BD1A
:1024C000445C0040405C0040C40A0020F0B5264B4C
:1024D00026491C682648A4B2002351F8042B92B266
:1024E00040F823200133082BF7D144F4806224F014
:1024F00001054FF6FF3714461B4BADB21D4E45F498
:10250000806E42F0010219491C601A60C3F800E0B5
:102510000023376050F82320013392B2082B41F892
:10252000042BF7D1104A45F48165156013681149F1
:102530009BB243F0040313600B68DB040DD54EF629
:10254000FF704FF6F773086010680B490340136083
:102550000B6923F004030B61F0BD074A136923F0F4
:1025600004031361F0BD00BF405C0040005C00400C
:10257000D00A0020445C004000ED00E070B5324C11
:10258000072818BF20702378052B4BD8DFE803F00D
:10259000181F30353F0363782B49013BDBB2637072
:1025A000637803F0FF02002B3ED14FF6EF7327480C
:1025B000274C06680625334003600D70226070BD0D
:1025C000234B1B68002B30D00523237070BD4FF6C2
:1025D000FB731E4D2A6813402B60FEF79DF91C4BC0
:1025E0004FF43F4004210122286021701A6070BD21
:1025F000022203236270237070BD6378124A013B8C
:10260000DBB2637063787BB90423137070BD0F4A2B
:10261000052013680A219BB243F010031360207059
:10262000617070BD0623237070BD4FF6FB73074DBC
:102630002A6813402B60FEF76FF94FF43F420623E0
:102640002A60237070BD00BFCC0A0020405C0040AF
:10265000A00300204FF6F873014A0340136070474F
:10266000505C0040800000F1804000F5B8400368F5
:1026700023F4EC4323F07003194389B201607047DF
:10268000800000F1804000F5B8400368CA0623F4DA
:10269000E04323F040039BB248BF83F010038A0657
:1026A00048BF83F0200343F4004343F080030360FA
:1026B000704700BF800000F1804000F5B84003681B
:1026C000CA0423F4804323F070039BB248BF83F411
:1026D00080538A0448BF83F4005343F4004343F01B
:1026E00080030360704700BF800000F1804000F568
:1026F000B840036823F4E04323F040039BB283F027
:10270000300343F4004343F080030360704700BF8D
:10271000800000F1804000F5B840036823F4804356
:1027200023F070039BB283F4405343F4004343F01F
:1027300080030360704700BF40F60F62800000F125
:10274000804000F5B8400368134043F4004343F071
:1027500080030360704700BFFFF7EEBF800000F109
:10276000804000F5B84003685B0408D540F60F735D
:102770000268134043F4404343F080030360704712
:10278000800000F1804000F5B84003685B0608D582
:1027900040F60F730268134043F4004343F0C00354
:1027A00003607047044A054B126892B202EBC00006
:1027B00003445B0019607047505C00400230002009
:1027C0000E4A0F4B12683E2992B202EBC00003443E
:1027D0004FEA43030AD94A09C80604BF02F1FF328F
:1027E00092B2920242F400421A6070474A08C90746
:1027F00048BF013292021A60704700BF505C00402F
:1028000006300020064B49081B6849009BB203EBC9
:10281000C00000F1005000F54050400001607047DA
:10282000505C0040FFF7EEBF054A064B12684908AE
:1028300092B202EBC000034449005B00196070478C
:10284000505C004004300020FFF7EEBF054B1B68D2
:102850009BB203EBC00000F1005000F54050400077
:1028600000887047505C0040FFF7F0BF044A054BFA
:10287000126892B202EBC00003445B0018887047F4
:10288000505C004004300020FFF7F0BF054A064BC3
:10289000126892B202EBC00003445B001868C0F3F8
:1028A00009007047505C004006300020FFF7EEBF83
:1028B000C3B2000A40EA0320704700BF10B40549C4
:1028C000054C064A00204FF43F4320600B80136004
:1028D00010BC7047C40A0020445C0040405C0040CB
:1028E00008B5074B044613B10021AFF30080054B38
:1028F0001868836A03B19847204600F077FC00BF50
:1029000000000000483300080E4B70B51E460E4C08
:102910000025E41AA410A54204D056F825309847A3
:102920000135F8E700F064FC084B094C1E46E41A38
:10293000A4100025A54204D056F82530984701354B
:10294000F8E770BD5803002058030020580300200A
:102950005C03002003460244934202D003F8011BAB
:10296000FAE770470EB400B54FF402719CB0ADF8B1
:1029700014106FF00041049107914FF6FF711DABE9
:1029800002900690084853F8042BADF81610006822
:1029900002A9019300F06CF8029B00221A701CB08F
:1029A0005DF804EB03B0704754030020034613F8AE
:1029B000012B002AFBD1181A013870472DE9F04786
:1029C0008E6882469E420C46914698463ED88A8939
:1029D00012F4906F3AD02568096902236F1A65696D
:1029E00005EB450595FBF3F57B1C43449D4238BF41
:1029F0001D4653050FD5294600F04AFB064698B1FF
:102A00003A46216900F0D2FAA38923F4906343F097
:102A10008003A38113E02A4600F098FB064670B9B4
:102A20002169504600F0E8FA0C23CAF80030A38967
:102A30004FF0FF3043F04003A381BDE8F0872661EB
:102A40003E44266046466561ED1BA560464528BFAD
:102A5000464649463246206800F0B3FAA368002093
:102A60009B1BA36023681E442660BDE8F08700001E
:102A70002DE9F04F9DB003938B8980461C060D46CF
:102A800016460DD50B695BB9402100F001FB2860AB
:102A9000286118B90C23C8F80030CDE040236B61E1
:102AA0000023099320238DF82930DFF89CB13023CF
:102AB0008DF82A3037463C4614F8013B1BB9B7EB7A
:102AC000060910D003E0252BF9D02746F3E74B4643
:102AD000324629464046FFF771FF013000F0A780DB
:102AE000099B4B4409933B78002B00F0A080002306
:102AF0004FF0FF3204930793059206938DF85330FD
:102B00001A930126052221784E4800F041FA671CED
:102B1000049B38B14B4A3C46801A06FA00F0184331
:102B20000490EFE7D90644BF20228DF853201A07FE
:102B300044BF2B228DF8532022782A2A03D0079AEB
:102B400000210A200BE0039A111D12680391002A4C
:102B500010DA524243F00200079204900BE027463D
:102B60003B780134303B092B03D800FB02320121B2
:102B7000F5E701B107923B782E2B1ED17B782A2BEB
:102B80000AD1039B02371A1D1B680392002BB8BFA2
:102B90004FF0FF33059310E0002319460593781C8E
:102BA0000A2407463A780130303A092A03D804FB50
:102BB00001210123F5E703B1059103223978224869
:102BC00000F0E6F940B14023CBEB000003FA00F03F
:102BD000049B013718430490397806221B487E1C59
:102BE0008DF8281000F0D4F988B1194B33B9039B44
:102BF000073323F007030833039314E003AB009378
:102C00002A46144B04A94046AFF3008007E003AB0B
:102C100000932A460F4B04A9404600F093F8B0F108
:102C2000FF3F824603D0099B5344099342E7AB8997
:102C30005B0601D4099801E04FF0FF301DB0BDE8FC
:102C4000F08F00BF4C3300085233000856330008A1
:102C500000000000BD2900082DE9F04791461F46FD
:102C60000A698B6806469342B8BF1346C9F800301C
:102C700091F843200C46DDF8208012B10133C9F8E9
:102C800000302368990642BFD9F800300233C9F8F2
:102C90000030256815F0060510D104F1190A07E087
:102CA0000123524639463046C04701301AD001351B
:102CB000E368D9F800209B1A9D42F1DB94F8433079
:102CC0002268003318BF012392060FD5E118302087
:102CD00081F843005A1C94F845102244023382F8CC
:102CE000431003E04FF0FF30BDE8F08704F14302EA
:102CF00039463046C0470130F4D02268D9F8005038
:102D0000E36802F00602042A08BF5D1B2269A3687B
:102D10000CBF25EAE57500259342C4BF9B1AED1848
:102D20004FF000091A344D4509D001232246394697
:102D30003046C0470130D5D009F10109F3E7002042
:102D4000BDE8F0872DE9F04317460A7E85B06E2A6C
:102D5000984606460C460C9B01F1430E00F0AE80EF
:102D600011D8632A22D009D8002A00F0BB80582A43
:102D700040F0CA8081F84520834955E0642A1ED07E
:102D8000692A1CD0C0E0732A00F0B08009D86F2AED
:102D90002ED0702A40F0B8800A6842F020020A6003
:102DA0003EE0752A24D0782A3AD0ADE01A6801F1C5
:102DB0004205111D1960136884F84230A8E02168AB
:102DC0001A6811F0800F02D0111D196008E011F08F
:102DD000400F02F10401196002D0B2F9003000E0A6
:102DE0001368002B3CDA2D225B4284F8432037E045
:102DF00021681A6811F0800F02D0111D196007E0D8
:102E000011F0400F02F10401196001D0138800E0B5
:102E10001368227E5C496F2A14BF0A2208221BE035
:102E200078225A4984F845202268186812F0800FE9
:102E300000F104051D6003D1550601D5038800E0AB
:102E40000368D00744BF42F0200222601BB9226809
:102E500022F0200222601022002084F8430001E0CA
:102E600049490A226568002DA56008DB206820F02A
:102E7000040020602BB9002D7DD175460CE0002B9D
:102E800079D07546B3FBF2F002FB1033CB5C05F84A
:102E9000013D03460028F5D1082A0BD12368DA0743
:102EA00008D5236962689A42DEBF302305F8013CE9
:102EB00005F1FF35C5EB0E0323612EE008681A68A3
:102EC00010F0800F496903D0101D1860136808E0E6
:102ED00010F0400F02F104001860136801D019804F
:102EE00000E0196000232361754616E01A68111D81
:102EF0001960156800216268284600F049F808B199
:102F0000401B6060636804E004F1420584F84220DD
:102F100001232361002384F84330CDF800803B4631
:102F200003AA21463046FFF797FE013002D14FF049
:102F3000FF3026E023692A4639463046C047013033
:102F4000F5D023689B0710D5002504F1190907E087
:102F500001234A4639463046C0470130E7D00135A3
:102F6000E368039A9B1A9D42F2DBE068039B984258
:102F7000B8BF184605E00B7804F1420584F84230EA
:102F80008AE705B0BDE8F0835D3300086E330008C2
:102F900010B5C9B202449042034605D01C780130F6
:102FA0008C42F8D1184610BD002010BD10B5431E4C
:102FB0000A44914204D011F8014B03F8014FF8E79D
:102FC00010BD884210B501EB020301D8421E0BE090
:102FD0009842FBD28118D21AD34204D013F8014D83
:102FE00001F8014DF8E710BD994204D011F8014BEA
:102FF00002F8014FF8E710BD38B50546002944D066
:1030000051F8043C0C1F002BB8BFE41800F0D4F8B2
:103010001E4A1368114613B96360146030E0A3427E
:103020000DD92268A018834201BF18685B68121886
:10303000226063600C6023E0A24203D813465A6802
:10304000002AF9D118681918A1420BD1216801444E
:1030500058188242196013D11068526801441960EF
:103060005A600DE002D90C232B6009E0216860183A
:10307000824201BF106852680918216062605C607A
:103080002846BDE8384000F098B838BDA8030020B5
:1030900070B5CD1C25F0030508350C2D38BF0C2567
:1030A000002D064601DBA94202D90C23336046E01D
:1030B00000F082F8234B1C681A462146A1B10B6828
:1030C0005B1B0ED40B2B03D90B60CC18CD501EE02C
:1030D0008C420BBF63684B681360636018BF0C467B
:1030E00015E00C464968E9E7174C23681BB93046E0
:1030F00000F052F820602946304600F04DF8431C9D
:1031000018D0C41C24F00304A0420DD12560304621
:1031100000F053F804F10B00231D20F00700C31A40
:103120000ED05A42E25070BD211A304600F034F8F9
:103130000130EBD10C233360304600F03EF8002024
:1031400070BD00BFA8030020A4030020F8B5074607
:1031500015460E4621B91146BDE8F840FFF798BF65
:103160001AB9FFF749FF2846F8BD00F027F8854255
:103170000ED929463846FFF78BFF044650B1314639
:103180002A46FFF713FF31463846FFF735FF01E0C7
:103190003046F8BD2046F8BD38B5064C002305463C
:1031A0000846236000F014F8431C02D1236803B1E1
:1031B0002B6038BDF00A00207047704751F8040CAE
:1031C0000028BEBF091851F8043CC01804387047E5
:1031D000044B0246196809B903491960186802448A
:1031E0001A607047AC030020F80A0020FEE70000D8
:1031F000F8B500BFF8BC08BC9E467047F8B500BFE4
:10320000F8BC08BC9E4670475B256C645D20524646
:1032100049442044657465637465643A20253032FE
:10322000782530327825303278253032780D0A0012
:103230005B256C645D20436F6E6E656374696E67B9
:103240002E2E2E0D0A0000005B256C645D20536558
:103250006E64696E6720646174612E2E2E0D0A0003
:103260005B256C645D20446174612073656E742E0F
:103270000D0A0000256300005B256C645D20504949
:103280004E472073656E740D0A000000260353003C
:1032900054004D006900630072006F0065006C000F
:1032A00065006300740072006F006E0069006300C7
:1032B0007300000012010002020000408304405726
:1032C0000002010203010000040309043203530059
:1032D00054004D0033003200200056006900720097
:1032E0007400750061006C00200043004F004D0029
:1032F000200050006F0072007400200020000000C9
:1033000009024300020100C0320904000001020268
:10331000010005240010010524010001042402021B
:103320000524060001070582030800FF09040100C7
:10333000020A0000000705030240000007058102A1
:103340004000004300000000F4020020232D302B39
:103350002000686C4C006566674546470030313296
:1033600033343536373839414243444546003031ED
:10337000323334353637383961626364656600004C
:043380000000000049
:08338400C4CDFF7F0100000031
:10338C000204060800000000010203040102030409
:10339C0006070809010100002D2D2D446562756793
:1033AC00206C6F672073746172742D2D2D0D0A00C3
:1033BC0041542B43495053544152543D2254435091
:1033CC00222C226774632E617269656661746B6866
:1033DC0075722E7765622E6964222C38300D0A00C6
:1033EC00726669643D653239363032303726676132
:1033FC0074653D312674696D653D31353036363036
:10340C00323239300000000041542B4349504D55A5
:10341C00583D300D0A00000041542B434950434C99
:10342C004F53450D0A00000041542B43495053455E
:10343C004E440D0A00000000504F5354202F626F71
:10344C00742F676174655F656E7472792E70687025
:10345C0020485454502F312E310D0A486F73743A52
:10346C00206774632E617269656661746B6875722E
:10347C002E7765622E69640D0A436F6E6E656374F8
:10348C00696F6E3A20636C6F73650D0A436F6E74CF
:10349C00656E742D547970653A206170706C696337
:1034AC006174696F6E2F782D7777772D666F726DDB
:1034BC002D75726C656E636F6465640D0A436F6E77
:1034CC0074656E742D4C656E6774683A2025640DB6
:1034DC000A0D0A25730D0A0041542B4349505348D9
:1034EC0055540D0A0000000041542B435354543DD5
:1034FC0022696E7465726E6574222C22776170225B
:10350C002C22776170313233220D0A0041542B4347
:10351C00494943520D0A000041542B43474154542E
:10352C003D310D0A0000000041542B4349465352D3
:10353C000D0A0000726669643D3836666665636420
:10354C003526676174653D312674696D653D31358D
:10355C003036363032323930000000007266696421
:10356C003D2530327825303278253032782530328E
:10357C007826676174653D312674696D653D31351A
:10358C0030363630323239300000000000A24A04A6
:10359C001A03530054004D003300320000000000A9
:1035AC000000000000000000000000009D1E00084C
:1035BC00991E0008991E0008991E0008991E000803
:1035CC00991E0008991E0008991E0008991E0008F3
:1035DC00A91E0008991E0008991E0008991E0008D3
:1035EC00991E000800330008430000006123000806
:1035FC00852300089D220008B1220008B52200088E
:10360C0011230008352300086524000871240008E4
:10361C007D2400080000000040000000991E0008F6
:10362C0079220008991E0008991E0008991E0008AE
:10363C00991E0008991E0008991E00089122000886
:10364C00B432000812000000C83200080400000068
:10365C008C32000826000000CC320008320000003A
:10366C00100200201A00000000C201000000080037
:10367C000401010000000000000000000000000038
:10368C00000000000000000000000000000000002E
:10369C0000000000433300080000000000000000A0
:1036AC00000000000000000000000000000000000E
:1036BC0000000000000000000000000000000000FE
:1036CC0000000000000000000000000000000000EE
:1036DC0000000000F402002011010008ED000008B9
:0400000508000000EF
:00000001FF
