:020000040800F2
:10000000005000204D1300080514000809140008D2
:100010000D14000811140008151400080000000059
:10002000000000000000000000000000191400089B
:100030001D140008000000002114000845150008E8
:10004000A7130008A9130008AB130008AD1300089C
:10005000AF130008B1130008B3130008B51300086C
:10006000B7130008B9130008BB130008BD1300083C
:10007000BF130008C1130008C3130008C51300080C
:10008000C7130008C9130008CB130008CD130008DC
:1000900025140008D1130008D3130008D513000855
:1000A000D7130008D9130008DB130008DD1300087C
:1000B000B10F0008E1130008E3130008E51300087E
:1000C000E7130008E9130008EB130008ED1300081C
:1000D000EF130008A5180008F3130008851900089D
:1000E000F7130008F91300082914000810B5054C8F
:1000F000237833B9044B13B10448AFF300800123D4
:10010000237010BDFC03002000000000D04E00084A
:10011000084B10B51BB108490848AFF300800848E8
:10012000036803B910BD074B002BFBD0BDE810409E
:10013000184700BF0000000000040020D04E000857
:10014000FC03002000000000154B002B08BF134BE0
:100150009D46A3F5803A00218B460F461348144A6A
:10016000121A03F056F80F4B002B00D098470E4B95
:10017000002B00D098470020002104000D000D48FE
:10018000002802D00C48AFF3008002F005FF2000E9
:10019000290000F0AFFD02F0EBFE00BF00000800F8
:1001A000005000200000000000000000FC030020C0
:1001B000440F0020000000000000000040F0BF607D
:1001C000024B40F40030D860704700BF00ED00E003
:1001D000C3785BB9037801215A09164803F01F035D
:1001E000203201FA03F340F82230704730B4124B4A
:1001F0008278D9684478C9430F23C1F30221C1F141
:100200000405CB40AC401340027823431B0102F1AC
:100210006042DBB202F5614282F8003303780122CA
:1002200003F01F0003495B09824041F8232030BCE2
:10023000704700BF00E100E000ED00E08379002B93
:100240002BD010B41F4B01681A6822EA01021A6011
:100250005A68016822EA01025A600279016802F1D3
:10026000804202F582321468214311609A68016865
:1002700022EA01029A60DA68016822EA0102DA6081
:100280004279102A14D002F1804303F582330268C8
:1002900019680A431A6010BC70470379016803F1BA
:1002A000804303F582331A6822EA01021A6070471C
:1002B000996802680A439A600268D9680A43DA605A
:1002C00010BC704700040140014B5861704700BFEB
:1002D00000040140CB782DE9F04103F00F06DB0666
:1002E00048BF8B780C8848BF1E4314F0FF0F26D000
:1002F0000568002301274FF00F0803E00133082BA6
:100300001BD00C8807FA03F232EA0404F6D19C00F1
:1003100091F803E008FA04FC25EA0C0506FA04F457
:10032000BEF1280F45EA040538D0BEF1480F03F1AD
:10033000010308BF0261082BE3D105600C88FF2C84
:100340002AD94568002301274FF00F0C03E0013341
:10035000082B20D00C8803F1080207FA02F232EAD7
:100360000404F4D191F803E09C00BEF1280F04BF0F
:10037000426191F803E00CFA04F8BEF1480F03F172
:10038000010325EA080506FA04F408BF0261082BF8
:1003900045EA0405DED14560BDE8F0814261ADE784
:1003A0004FF6FF710222042301808270C3707047F0
:1003B00001617047416170470AB94161704701614D
:1003C000704700BF30B40028184B00F44012B4BF8F
:1003D000DB695B68B2F5401F84B21ED0C20213D540
:1003E000C0F303450322AA4023EA020343F07063EB
:1003F00019B1420D1201944023430C4A0028B4BFA6
:10040000D361536030BC7047420D120104FA02F20E
:1004100023EA020343F07063EAE7044D23F07063BC
:100420006A6822F070626A60E2E700BF0000014083
:10043000014B1860704700BF20000E42014B18604E
:10044000704700BFD8004242064B002201281A70B4
:100450001A7005D0042802D105221A70704770471F
:100460001870704720100240024A136A1843106245
:10047000704700BF00100240014B1860704700BF7A
:100480003C04424230B4214A536803F00C03042B6D
:1004900006D0082B25D01BB11D4A1346026001E08F
:1004A0001B4B0360194A1B4C51681B4DC1F30311D0
:1004B000615CCB4043605168C1F30221615C23FA67
:1004C00001F181605168C1F3C221615CCB40C3601E
:1004D0005268C2F38132AA5C30BCB3FBF2F3036111
:1004E000704753685168C3F38343C90303F10203A0
:1004F00007D55268920304D4054A02FB03F3036054
:10050000D0E7064A02FB03F30360CBE7001002408A
:1005100000127A00040000200000002000093D00C5
:1005200029B9054A936923EA000090617047024B9C
:100530009A691043986170470010024029B9054A32
:10054000D36923EA0000D0617047024BDA69104397
:10055000D8617047001002404309012B0BD0022BD9
:10056000094B00F01F000CBF1B6A5B6A23FA00F006
:1005700000F001007047044B00F01F001B6823FAD5
:1005800000F000F00100704700100240074A118B94
:10059000938B108B89B280B281429BB21DBF938B2B
:1005A0009BB243EA004043EA014070470028004004
:1005B000084A010C938880B29BB243F010039380E9
:1005C00011839083938823F010031B041B0C9380EA
:1005D000704700BF00280040084AC0F303419388D9
:1005E00080B29BB243F01003938011819081938875
:1005F00023F010031B041B0C93807047002800405D
:10060000024A93889B06FCD5704700BF0028004033
:1006100005490A468B8823F008031B041B0C8B80BA
:1006200093881B07FCD5704700280040254A0388A3
:1006300090429BB212D002F5006290420ED0B0F10F
:10064000804F0BD0A2F59832904207D002F580621D
:10065000904203D002F58062904203D14A8823F091
:1006600070031343184A904224D002F580629042EE
:1006700020D0CA8823F440739BB2134303808A8836
:10068000104B82850A88984202850ED00F4B984203
:100690000BD003F54063984207D003F5806398427E
:1006A00003D003F58063984201D10B7A03860123BE
:1006B0008382704703808B8883850B8803850123A1
:1006C00083827047002C014000100040003401403C
:1006D0004FF6FF72002382800380C3804380037241
:1006E000704700BF038829B923F001031B041B0CCA
:1006F000038070479BB243F001030380704700BF43
:1007000083899BB21AB923EA010181817047194399
:1007100081817047FFF7F4BFC94389B201827047F6
:1007200030B504460D46038ACA889BB223F4405371
:100730001343038282890B89888892B249890343D3
:1007400022F4B0520B4322F00C0213439BB2A3815C
:10075000A38AAA899BB223F4407387B01343A38270
:1007600001A8FFF78FFE04991A48039BA2898442CF
:1007700008BF0B4612F4004F2A6803EB830314BF33
:100780005200920003EB8303B3FBF2F3124DA189F5
:10079000A5FB03206422400900FB12330A044FEA40
:1007A00000100AD41A013232A5FB0223C3F343130B
:1007B00003439BB2238107B030BDD9003231A5FB82
:1007C0000131C1F3421242EA00039BB2238107B018
:1007D00030BD00BF003801401F85EB5100234FF4AE
:1007E00016510C22016042818380C3800381838182
:1007F000704700BF838929B923F400531B041B0CE5
:10080000838170479BB243F400538381704700BFDC
:1008100010B401F01F04C1F342110123012903FAAE
:1008200004F30FD002290CBF103014302AB902682B
:1008300022EA0303036010BC70470268134303609D
:1008400010BC70470C30F1E7C1F30801818070479C
:100850008088C0F308007047C1F3421210B401232E
:1008600001F01F04012A03FA04F315D0022A0CBF79
:10087000028A828A92B21340028892B24BB101235B
:10088000090A03FA01F10A4214BF1846002010BCFD
:100890007047184610BC7047828992B21340EBE74C
:1008A0002DE9F84FDFF8988098F800300A2B43D0F4
:1008B000224BDFF890A093F800909AF8005007467A
:1008C000A9454C4618D04668DFF87CB001E0AC4240
:1008D00014D00A2CA8BF002404EB44000BEB8000CA
:1008E00043680134B342F2D13246394602F082FC09
:1008F0000028ECD1BDE8F88FDFF84CB098F8002064
:100900006B1CDBB20132D2B2092B88F8002085BF04
:10091000002213468AF800308AF80020994508BF63
:100920008AF8005005EB45050BEB850B97E80700AF
:100930008BE80700BDE8F88FBDE8F88F19040020A8
:10094000180400201B040020780400202DE9F04F3B
:100950004D4AADF5177D13684C4C002B00F08B8091
:1009600047F2305113684A4AA2FB0302520B01FBC3
:100970001233002B7FD12378444D002B77D016A85B
:100980000122444902F008FD2B78434E03F0FF0793
:10099000DFF81091002B46D0DFF80C81DFF80CA1B6
:1009A00000252378002BFCD0327899F800303B49A1
:1009B0001344DBB2092B06A802F1010E07D90A2263
:1009C00092FBF3F203FB02F3C3F10A03DBB203EB86
:1009D000430308EB830C18F823209CF8013086F8B9
:1009E00000E00593DCF8083002939CF803B09CF813
:1009F00002C0059BCDF800C0CDF804B002F0CCFCDD
:100A000016A802F0F6FC16AB184406A902F0E8FCA2
:100A10007B1B012BC8BFBAF8003005F10105C8BF28
:100A20000380BD42BDD116A802F0E3FC1C4B16AA00
:100A300019889B78024416AD29529370284600F01D
:100A4000E3FB99F80030327816491344DBB2092BE6
:100A500006D90A2090FBF3F003FB00F3C3F10A036D
:100A60000B70237800219B1ADBB2237031700DF5D7
:100A7000177DBDE8F08F2378042BF8D92378034D38
:100A8000002BF4D07BE700BF2004002018040020D6
:100A900073B2E745C44A00081A040020A04A0008BF
:100AA000C04A00081904002078040020BC4A00084D
:100AB00070B4174CFF220021627021704368A12599
:100AC00003332271A370E570436863714368A3F137
:100AD00060028B42D2B218DD0B46465C6518AE71DF
:100AE000415C01334568DBB20A44AB42D2B21946DD
:100AF000F3DB06335242E254A37805490433236200
:100B00001A4670BC034800F0CDBF0623F2E700BFD1
:100B1000F0040020AC090020F0B40B4BFF250824A2
:100B200000260422A1205D275D7001259A70D870EF
:100B3000DF711E705E711D719D711C622246F0BCDA
:100B40001946024800F0AEBFF0040020AC090020B6
:100B5000B2B1002370B41E46541EE4B201346400E6
:100B6000020F092A02F1300586BF3732CA54CD542C
:100B7000CA180233A3424FEA00105670F0D170BC7D
:100B8000704700BF10B5012182B02020FFF7C8FCDC
:100B90004FF400740322142301A90D488DF8062098
:100BA0008DF80730ADF80440FFF794FB4FF4802038
:100BB000FFF78AFB074B082101224FF480241846D7
:100BC0001C6059719A71FFF739FB02B010BD00BF6C
:100BD000001401406005002008B50020FFF72EFC3E
:100BE000BDE8084001214FF40000FFF7A7BC00BF9B
:100BF000064B9B7A23B9064B01221A6000F018BC01
:100C0000034B05221A6000F013BC00BFF00E002059
:100C10003C04002010B54FF4A06082B0FFF7CEFA7C
:100C200001241421022201A800238DF804108DF85C
:100C300005208DF806308DF80740FFF7C9FA2A2302
:100C400001A88DF805408DF80430FFF7C1FA02B015
:100C500010BD00BF4FF4007110B90348FFF7A8BBE7
:100C60000148FFF7A7BB00BF001401400A4B0B4A25
:100C70001B681068181800D1704710B5084B08227F
:100C80001C680849FFF764FF2046BDE810400422B5
:100C90000549FFF75DBF00BFE8F7FF1FF0F7FF1F33
:100CA000ECF7FF1F5E0200206E0200203F2901D9F1
:100CB0000020704738B5084B8CB222460025C02171
:100CC0001D6001F0C1FD2146012002F077F80120EE
:100CD00002F016F8012038BD1600002008B5044BBC
:100CE000002203201A6002F01FF8012008BD00BF97
:100CF000170000202DE9F04FADF5037DFFF742FF0F
:100D0000FFF76AFFFFF786FF01F0F2FB8B4B8C4980
:100D10001B688C4AA1FB03138B499B09013B0720ED
:100D2000F02500241026536081F823509460106051
:100D300081F8236000F016FC01211D20FFF7F0FB75
:100D40006846FFF72DFB4FF40055022369467F48A4
:100D50008DF80230ADF800508DF80360FFF7BAFA55
:100D6000224629467948FFF727FB794D00F052FCCF
:100D70007849794800F0B6F9FFF742FC00F076FABE
:100D8000FFF716FCFFF73CFC2B68052B00F0BA8040
:100D9000724F00F009FCB946714EDFF81082714CB9
:100DA0004FF0000A0BE02368C820B3FA83F35B0915
:100DB000236000F0BFFB4FF0010AFFF7C7FD0122DF
:100DC0004FF480516848FFF7F7FA2B68052BEAD1FA
:100DD000FFF784FF3368002BEFD098F80030012B29
:100DE00002D000233360E8E7BAF1000F3ED13B7830
:100DF000312B45D099F80030322B45D099F800308E
:100E0000332B45D099F80030342B45D099F8003079
:100E1000352B45D099F80030362B45D03B78372B11
:100E200046D099F80030382B46D099F80030392B4D
:100E300046D099F800302F2B53D099F80030302B42
:100E400054D099F80010C9B20D2953D03368002B43
:100E5000C7D04FF0000B17F80B103F4800F0DEFC36
:100E600033680BF1010B9B45F5D3BAE73F4802F01D
:100E7000C0FAC1B23D48FFF719FF4FF0000AB0E7D2
:100E80003B4800F01DF9ACE73A4800F019F9A8E733
:100E9000394800F015F9A4E7384800F011F9A0E747
:100EA000374800F00DF99CE7364800F009F998E75B
:100EB000354800F005F994E7344800F001F990E76F
:100EC000334802F096FA334B02463349334802F076
:100ED00063FA324800F0F4F81A211F4800F09EFC33
:100EE0007FE72F4802F085FA2D4BEDE72D4800F003
:100EF000E7F876E7184800F091FC0A21164800F060
:100F00008DFC6EE7FFF742FB019001A802F06AF842
:100F100001F0F2FF064602F06CFA304400F8014C92
:100F20003246214902A802F037FA02A802F061FA1B
:100F3000C1B202A8FFF7BAFE2AE700BF580200209C
:100F4000D34D621010E000E000ED00E00010014021
:100F50003C040020440C0020900D002020050020BF
:100F6000E00E00201C040020000C014018000020AE
:100F70009401002048020020FC010020A401002070
:100F8000C80100200C02002030000020F4000020E6
:100F9000180200206000002004010020AC050020A1
:100FA000D401002088000020E04A0008160000203C
:100FB0002DE9F041002290B04FF400513748FFF77F
:100FC000FBF9374F0526374800F060FC044600283F
:100FD00052D1013E16F0FF064ED04FF47A73022232
:100FE0003149304800F06EFD0028ECD02D4800F06B
:100FF000EDFB002850D02D4D05EB0008294800F0EE
:10100000E5FB05F8010F04444545E4B2F6D1254857
:1010100000F0DCFB2044C307D5D43B78A22BD2D10F
:10102000FFF7B4FA224B79789860596039B1214AB8
:10103000194412F8010F03F8010B8B42F9D11C4C33
:101040002046FFF72DFC2046FFF732FD1A4B1B68A8
:10105000052BB8D1E078A1786378227801900091CF
:1010600003A8164902F098F903A802F0C2F9C1B228
:1010700003A8FFF71BFEA6E7FFF74EFD01214FF087
:101080008040FFF749FB01224FF400510348FFF76E
:1010900093F910B0BDE8F0810446B8E700100140B4
:1010A000F0040020F80A002014000020EF040020C3
:1010B0006C050020F10400203C040020044B0008D3
:1010C00070B5044602F095F9002808DD044E251895
:1010D00014F8011B306800F0A1FBAC42F8D170BDE0
:1010E0001805002010B50A4B0A4C186021600A4808
:1010F000FFF7E6FF40F6C4120849206800F034FD0F
:101100000028F4D040F6C410BDE8104000F012BA38
:10111000180500201405002040020020484B00085C
:1011200038B5244C206800F0A9FB25462248FFF77B
:10113000C7FF41F288322149206800F015FD0028E0
:10114000F4D01F48FFF7BCFF41F288321B492868E2
:1011500000F00AFD0028E9D01A48FFF7B1FF41F27C
:1011600088321649286800F0FFFC0028DED01648B7
:10117000FFF7A6FF41F288321049286800F0F4FC1E
:101180000028D3D01148FFF79BFF42F210720B49A1
:10119000286800F0E9FC0028C8D00D48FFF790FF50
:1011A00041F288320B49286800F0DEFC0028BDD0EF
:1011B00038BD00BF1405002094010020484B0008F2
:1011C00048020020FC010020A4010020C8010020EA
:1011D0000C0200203C4B000810B5084C206800F0C1
:1011E0004DFB0748FFF76CFF41F288320549206844
:1011F00000F0BAFC0028F4D010BD00BF1405002098
:1012000030000020404B000838B5044602F0F1F8E9
:10121000104D234602461049104C284602F0BCF8F7
:10122000FFF77EFFFFF7D8FF0D48FFF749FF41F2B8
:1012300088320C49206800F097FC2846FFF740FFF1
:1012400009481A2100F0EAFA2068BDE8384000F0A9
:1012500015BB00BFAC0500200401002014050020D0
:10126000F40000204C4B0008900D0020F0B52E4DEE
:101270002E4A87B000232E682D4F92E80300CDF848
:101280000E300190ADF80810CDF80A30CDF81230CC
:10129000ADF81630FFF744FFFFF79EFF2548FFF734
:1012A0000FFF41F288322449386800F05DFC234882
:1012B000FFF706FF1A21224800F0B0FA386800F064
:1012C000DDFA42F210721F49386800F04DFC002828
:1012D000E0D0002402E0144603F8140C386800F053
:1012E00075FAE3B206A9262804F101020B44F2D1F3
:1012F00006ABE4B21C44002740F6C41004F8147C8A
:1013000000F018F939460A2201A802F0F9F82A6813
:101310000D4B961BA3FB06239B0903F5C4437133B6
:10132000184407B0F0BD00BF20040020284B00087F
:1013300014050020F40000204C4B00089800002009
:10134000900D0020504B0008D34D62100649074A0B
:10135000074B9A42BEBF51F8040B42F8040BF8E762
:101360000448804704480047DC4E00080000002085
:10137000FC03002031140008490100081F49204ADD
:10138000002301E041F8043B9142FBD3FFF7B2FC9C
:10139000FEE7FEE7FEE7FEE7FEE7FEE7FEE7FEE725
:1013A000FEE7FEE7FEE7FEE7FEE7FEE7FEE7FEE715
:1013B000FEE7FEE7FEE7FEE7FEE7FEE7FEE7FEE705
:1013C000FEE7FEE7FEE7FEE7FEE7FEE7FEE7FEE7F5
:1013D000FEE7FEE7FEE7FEE7FEE7FEE7FEE7FEE7E5
:1013E000FEE7FEE7FEE7FEE7FEE7FEE7FEE7FEE7D5
:1013F000FEE7FEE7FEE7FEE7FEE7FEE7FC03002070
:10140000440F0020704700BFFEE700BFFEE700BFAB
:10141000FEE700BFFEE700BF704700BF704700BF98
:10142000704700BF01F046B94FF48020FEF74CBF73
:1014300030B43C4B3C49186882B040F00100186061
:101440005D6800202940596019684FF41F0421F09D
:10145000847121F48031196019681A4621F48021C1
:101460001960596821F4FE0159609C600090019058
:10147000196841F48031196003E0009BB3F5A06F57
:1014800009D0136803F400330193009B01330093E8
:10149000019B002BF1D0234B1B6813F4003318BFC2
:1014A00001230193019B012B06D0204B4FF00062DA
:1014B0009A6002B030BC70471D4A1A4B106819463A
:1014C00040F010001060106820F0030010601068F9
:1014D00040F0020010605A685A605A685A605A68B0
:1014E00042F480625A605A6822F47C125A605A6848
:1014F00042F4E8125A601A6842F080721A600B686F
:10150000084A9B01FBD51146536823F0030353603F
:10151000536843F0020353604B6803F00C03082B3D
:10152000FAD1C2E7001002400000FFF800ED00E031
:1015300000200240024A10601368002BFCD1704763
:1015400024040020054B1A6812B11A68013A1A6087
:10155000034A136801331360704700BF240400205E
:101560002004002008B501214FF0C050FEF7E6FF2F
:101570000120FEF75DFF0120FEF766FF4120FEF728
:10158000EBFF0028FAD04FF48070FEF76DFF0120CA
:10159000FEF772FFFFF73CF8FFF732F8BDE80840AE
:1015A00047F6FF70FFF718B830B5012185B008463F
:1015B000FEF7C4FF012400251C2368468DF8003087
:1015C0008DF802508DF801408DF80340FEF700FEC3
:1015D00001A8FFF77DF847F6FF4340F2644201A9F6
:1015E0004FF08040ADF80830ADF80420ADF806505B
:1015F000ADF80A50FFF71AF8224621464FF0804016
:10160000FFF788F821464FF08040FFF76BF805B0F0
:1016100030BD00BF2DE9F04F012189B04FF480208B
:10162000FEF78CFFDFF8A08101214FF48040FEF728
:1016300077FF01210420FEF7C5FE1826032340464C
:1016400002A940228DF80A300193594FADF80820C5
:101650008DF80B604FF0040BFEF73CFE802202A9D0
:101660004046ADF808208DF80BB0FEF733FE04A815
:101670000024FFF7B3F84FF00C094FF4165A04A9F1
:101680003846CDF810A0ADF81A90ADF81440ADF87A
:101690001640ADF81840ADF81C40FFF741F8384649
:1016A0000121FFF7A7F801250DEB090025228DF890
:1016B0000C208DF80E408DF80D408DF80F50FEF780
:1016C00087FD2A46384640F22551FFF7A1F82A4601
:1016D000384640F22771FFF79BF8019B4FF4806278
:1016E00002A94046ADF808208DF80A308DF80B604D
:1016F000FEF7F0FD2F4E4FF4006302A94046ADF80F
:1017000008308DF80BB0FEF7E5FD04A8FFF766F88A
:1017100004A93046CDF810A0ADF81A90ADF81440E9
:10172000ADF81640ADF81840ADF81C40FEF7F8FFD4
:1017300029463046FFF75EF827230DEB09008DF8A8
:101740000C308DF80E408DF80D408DF80F50FEF7DF
:101750003FFD2A46304640F22551FFF759F82A4608
:10176000304640F22771FFF753F813481349144AE3
:10177000144BA0F84441A0F8464180F84841076066
:10178000A1F84441A1F8464181F848410E60A2F811
:101790004441A2F8464182F848411760A3F8444109
:1017A000A3F8464183F848411E6009B0BDE8F08FB8
:1017B0000038014000480040F80A0020440C002096
:1017C000AC090020900D0020000C01400346B3F846
:1017D0004411B3F8462189B292B29142F7D0B3F8DE
:1017E0004411B3F8462189B292B2914213D0B3F8B2
:1017F000462192B21A441079B3F84621C0B20132A0
:1018000092B2B2F5A07FA3F8462103D30022A3F839
:101810004621704770470020704700BF10B504464E
:10182000B0F84421B0F8443192B201339BB2B3F521
:10183000A07FA0F8443124BF0023A0F84431B0F8C1
:101840004401B4F8463180B29BB2984210D0224491
:101850001171206840F22771FEF7FEFF00B110BD44
:101860002068012240F22771BDE81040FEF7D0BF8A
:101870000123A4F8442184F84831EAE7002380F8E2
:101880004831A0F84631A0F844317047B0F84421FF
:10189000B0F8463190B29BB2C01AB0FA80F040095D
:1018A000704700BF10B540F225513348FEF7D4FF12
:1018B000002830D140F227712F48FEF7CDFF48B302
:1018C0002E4BB3F84411B3F8462189B292B291423B
:1018D00041D0B3F84411B3F8462189B292B2914293
:1018E00041D0B3F8462192B21A441179B3F8462197
:1018F000C9B2013292B2B2F5A07FA3F8462129BF46
:10190000002289B289B2A3F846211B48BDE81040E5
:10191000FEF79ABF10BD1848FEF79AFF184AB2F8B2
:101920004411B2F8443189B201339BB2B3F5A07FC0
:10193000A2F8443124BF0023A2F84431B2F8444154
:10194000B2F84631A2B29BB29A420D4C0DD0C0B251
:1019500021440871AEE7002240F22771BDE8104033
:101960000548FEF755BF0021CFE70123A4F8441135
:1019700084F848319EE700BF00380140AC090020E0
:10198000F80A002030B540F2255183B04048FEF7F8
:1019900063FF00282FD140F227713D48FEF75CFF1E
:1019A00038B33C4BB3F84411B3F8462189B292B234
:1019B000914244D0B3F84411B3F8462189B292B2AF
:1019C000914244D0B3F8462192B21A441179B3F847
:1019D0004621C9B2013292B2B2F5A07FA3F84621E6
:1019E00029BF002289B289B2A3F846212848FEF710
:1019F0002BFF03B030BD2648FEF72AFF264BC4B2AA
:101A00001B68052B2BD0254AB2F84411B2F844319B
:101A100089B201339BB2B3F5A07FA2F8443124BF51
:101A20000023A2F84431B2F84401B2F8463182B240
:101A30009BB29A4219480CD001440C71ABE70022CA
:101A400040F227711248FEF7E3FE03B030BD0021DB
:101A5000CCE70123A0F8441180F848319BE70A2C19
:101A60000DD001AD22460E49284601F095FC2846CE
:101A700001F0BFFCC1B22846FFF718F9C3E702AD79
:101A80000D2325F8043D28460121FFF70FF9E9E76A
:101A900000480040900D00203C040020440C002031
:101AA0005C4B0008002A0BDD70B506460C468D180D
:101AB00014F8011B3046FFF7B1FEA542F8D170BD06
:101AC000704700BFF0B54FF0000EF446254E376862
:101AD0003468E41B9C4238D2B0F84451B0F8464117
:101AE000ADB2A4B2A542F3D0B0F84451B0F846412B
:101AF000ADB2A4B2A542F7D0B0F84451B0F8464117
:101B0000ADB2A4B2A54222D0B0F84641A4B204447A
:101B10002479B0F84651E4B20135ADB2B5F5A07FF5
:101B2000A0F8465101D3A0F846C111F80E50A542C5
:101B300012D091F800E0C4EB0E0EBEFA8EFE3468AF
:101B40004FEA5E1EE41B9C42C6D30020F0BD11F894
:101B50000E500024A542ECD10EF1010E9645B7D1EE
:101B60000120F0BD2004002070B505460846164649
:101B70000C4601F03EFC3346C2B221462846BDE881
:101B80007040FFF79FBF00BF08B538B1064B1B6818
:101B90001B689847054B18680A3008BD034B0122A3
:101BA0001B681A8208BD00BF0C0F0020100F002018
:101BB00008B538B1064B1B689B689847054B1868F9
:101BC0000C3008BD034B01221B681A8208BD00BF00
:101BD0000C0F0020100F002008B51F4B002832D03A
:101BE0001E481A6800210180137813F07F0316D075
:101BF000012B27D0022B24D1527902F00F039B0036
:101C000003F1804303F5B84312061B681FD403F4A5
:101C10004053B3F5805F0ED1012303700BE0527A7D
:101C2000930654BF0378022351064CBF43F00103CF
:101C300023F0010303700A4B1B681B699847074890
:101C400008BD084608BD1B6802221A8208BD03F0C1
:101C50003003102BEFD1DFE7100F0020DC0E002047
:101C60000C0F00202DE9F041244F3C68258A2DB946
:101C7000267A042E2AD0A38A042603E0A38A9D4252
:101C8000FAD902269D4228BF1D46A36928469847D7
:101C90008046002001F0F4F82A460146404600F054
:101CA000D3FD2946002001F089F8638A228A14496D
:101CB000521B1D44134B2282658230204FF4405248
:101CC0003C6808801A802672BDE8F0810E4B1A78B5
:101CD000012A06D00A4B102207261A802672BDE878
:101CE000F0810A490A4A0968054889B20A44520043
:101CF000156030223C681D700280E4E7100F002060
:101D0000180F0020160F002028040020505C00400F
:101D1000023000200B4B0C4A1B685178DA78914254
:101D200001D20220704799780029FAD110B59C8819
:101D30000CB1022010BD05499A720B685B68984788
:101D4000204610BD100F00203C0300200C0F002087
:101D500038B5104A104C12682368D97858799369BD
:101D6000984723689A7A0AB9022038BD0028FBD127
:101D70001A79002AF8D19D78002DF5D1074B1B6800
:101D8000DB689847236828465979DA78D9721A733C
:101D900038BD00BFE80E0020100F00200C0F0020FF
:101DA00038B5314B1B68187810F07F0003D002283B
:101DB00006D0022038BD5A7A22F020025A7238BD6D
:101DC0005A88002AF6D11A79002AF3D15A7922F0DA
:101DD00080008400150604F18041244D01F5B841CE
:101DE00009682D784CBF01F0300101F44051A84240
:101DF000DFD20029DDD09B7A002BDAD004F18044B9
:101E000004F5B8441206236809D503F03003102BFB
:101E10001ED0174B1B685B699847002038BD03F440
:101E20004053B3F5805FF4D1D8B9124B93F82C101E
:101E300000F0D2FF236823F4804323F070039BB2A9
:101E400083F4405343F4004343F080032360E0E70E
:101E5000C4B2204600F0A0FF2046302100F01CFF55
:101E6000D7E700F087FFE5E7100F00203C030020D4
:101E70000C0F0020B802002038B5224B18684279B8
:101E800022F080018C00150604F180431E4D03F5FD
:101E9000B8431B682D784CBF03F0300303F4405364
:101EA000A94201D3022038BD41880029FAD1002B74
:101EB000F8D0837A002BF5D004F1804404F5B844BF
:101EC0001206236811D523F4E04323F040039BB2AC
:101ED00083F0100343F4004343F0800323600B4B73
:101EE0001B689B699847002038BD23F4804323F08A
:101EF00070039BB283F4805343F4004343F08003A8
:101F00002360ECE7100F00203C0300200C0F0020A2
:101F1000054B1B685A8A10B10868104470478988BD
:101F20008A1A1A82704700BF100F002010B50C4BA0
:101F3000002093F82C1000F04FFF0A4B1B68187A12
:101F4000082806D10849094B4FF4805410220C8010
:101F50001A80A0F10900B0FA80F0400910BD00BF5E
:101F6000B8020020100F0020160F0020180F0020CC
:101F700070B5A24DA24A2B6811681A7A82B0092A5C
:101F80003ED0A04A89B20A4452001488640004F189
:101F9000804404F5C04422781A702B6862785A7025
:101FA000A0882E6800F090FF708020892E6800F0D5
:101FB0008BFFB080A2892B680121DA80197222B3CD
:101FC0005878062800F0848000283AD159880029E2
:101FD00000F098808C4C23681B699847032800F018
:101FE000EA804FF6FF722C68238A934200F08480C7
:101FF000022836D108232372FFF798FF02B070BD84
:10200000DA8801211972002ADAD11A785C7812F084
:102010007F0236D0012A00F0BF80022A00F0E18062
:10202000794B20461B685B699847032800F0C38002
:1020300000283ED02B6808221A72FFF777FF02B003
:1020400070BD082870D11A785206C3D16F4A00209B
:102050009A61588290474FF6FF722C68238A934208
:102060004AD0002BC6D094F90020002A7FDB684AB2
:102070004FF44051032311802372FFF757FF02B042
:1020800070BD092C00F0E180052C00F09B80032C32
:1020900000F0CA80012CC3D1DA78012AC0D19A8815
:1020A000002ABDD15B7A9B06BAD5FFF779FE0028DE
:1020B000B6D1534A574B1268002192B213445B00C9
:1020C0001960554A30212B68118006221A72B4E734
:1020D0001A7856067FF47EAF9A784B4C012A00F0AE
:1020E000BA80022A6BD0032A7FF475AF2268526A45
:1020F000002AACD106206EE709232372FFF716FFF2
:1021000002B070BD5A6822F47F42B2F5003F7FF4FE
:1021100061AF187810F07F0040F0A0809A88002A04
:102120007FF458AF3D4A92E70A287FF453AF1A78FC
:1021300002F07F02012A7FF44DAF9A7A002A3FF421
:1021400049AF598800297FF445AF5A682E4C22F4D4
:102150007F42B2F5803F7FF43EAF226858799369A1
:1021600098472B68002840F0B6802D4A6FE7E28838
:10217000019201998B4217D8934276D2224A126873
:1021800092F82C108AB2934274D2264B0021197017
:10219000A282FFF767FD70E70B2C7FF441AFFFF7DA
:1021A000D7FD002885D03BE7174B019A1B68228298
:1021B00093F82C20ECE72B6809221A723DE722687D
:1021C000126A95E793F90320002A07DB9A782AB967
:1021D0009A881AB99A7A002A3FF46BAF08221A72C9
:1021E0002BE7012C3FF461AF032C7FF419AFFFF70D
:1021F00043FE00283FF45DAF12E700BF100F002040
:10220000505C004004300020E80E0020891B0008CC
:10221000160F002002300020180F0020D91B0008E4
:10222000B11B000828040020DA78012A7FF4F8AEF8
:102230009A88002A7FF4F4AE5A7A284942F02002A4
:1022400009685A72CB69984733E7FFF763FD0028A6
:102250003FF42FAFE4E62268D26949E701282FD086
:10226000022811D008461E4CB5E61D4B1B6893F89A
:102270002C208DE793FBF1F001FB1033002B87D16D
:10228000184B0121197083E7587900F00F018A007B
:10229000040602F18042144C02F5B8421268247818
:1022A0004CBF02F0300202F44052A14206D210F0BC
:1022B000700003D1002A7FF435AF8BE6002089E659
:1022C000074C58792268936998472B6818B99A7A0D
:1022D000002A7FF427AF58787DE600BF0C0F00205E
:1022E000E80E0020280400203C030020F8B5304D03
:1022F0002C68237A022B07D0042B05D0032B09D09E
:10230000052B07D0072B33D008232372BDE8F840F4
:10231000FFF70CBEA369228AB3B1B2B1A68A964276
:1023200028BF164630469847228A638A921B334458
:10233000074622826382002000F0B2FD3246014649
:10234000384600F095FA228ACAB9A38A33B31949EC
:102350002A68194B062010721A68184B92B213445F
:102360005B0000221A602C683022237A0A80CCE7B6
:10237000134B1B68DB6898472C680823C5E7114B93
:1023800000214FF4405208461A8000F017FD238ABE
:10239000A28A084930209A42088003D82C68032377
:1023A0002372B2E7002BD3D02C6805232372ACE74D
:1023B000100F0020180F0020505C00400230002059
:1023C000E80E0020160F0020F8B5234C23681A7A77
:1023D000022A17D0042A15D0062A05D008221A721C
:1023E000BDE8F840FFF7A2BD5A78052A13D01B4B71
:1023F0001B689B689847236808221A72BDE8F8405A
:10240000FFF794BDFFF72EFC23681A7A1A72BDE815
:10241000F840FFF78BBD1A7812F07F02E7D1104920
:10242000DF780E7876B10F4840F60F73056842F4F6
:1024300000412B4041F0800101320B43964240F8AD
:10244000043BF1D1084A47F08007084B17601B682E
:102450001B6A9847CBE700BF100F0020E80E002052
:102460003C030020005C00404C5C00400C0F00204E
:1024700070B40C4B1E787EB10B4C002240F60F73EB
:10248000256842F400412B4041F0800101320B43AA
:10249000964244F8043BF1D1044B40F080001860B0
:1024A00070BC70473C030020005C00404C5C004066
:1024B000704700BF014B01221A60704716000020D0
:1024C000084B10B5012203201A6000F0FBFC034604
:1024D000054C024623604FF488710448BDE8104063
:1024E00000F0C6B917000020E00E002020050020F3
:1024F00070B4074A07490848084E094C094B0225A1
:1025000015720860236032601B6870BC184700BFFA
:10251000F00E00200C0F0020E8020020100F002019
:10252000E80E0020B80200202DE9F04FDFF878A176
:10253000DFF878915746C84685B00023DFF870B1C0
:10254000544DADF80E30DBF80030534C99B21B04FB
:10255000524E504AAAF8001040F190803B8803F098
:102560000F03990001F1804101F5B84189F800306D
:10257000002B2FD14BF6BF73216889B2298029889F
:1025800001F030013180298801F44051298021680F
:102590000B4083F4005383F0200343F4004343F0E3
:1025A000800323603B88D90641D523689BB2ADF8F0
:1025B0000E30BDF80E301B0563D4BDF80E30180484
:1025C000C1D540F68F73019221680B402360FFF75D
:1025D0008DFE34E00B689BB2ADF80E30BDF80E30C6
:1025E000180417D4BDF80E301A06ACD548F60F7291
:1025F00099F800302A499B0003F1804303F5B84362
:10260000186802401A6099F80030013B51F82330F5
:10261000984798E740F68F730868224A03400B609A
:1026200098F80030013B52F823309847DAE748F633
:102630000F73019221680B402360FFF7C5FE4BF634
:10264000BF73019A2068118812880340C90448BFEB
:1026500083F480539704328848BF83F40053D5062F
:10266000328848BF83F01003940648BF83F02003EC
:1026700043F40043084A43F08003136005B0BDE80B
:10268000F08F40F68F73019221680B402360FFF7B3
:102690006FFCD4E7160F0020005C0040180F0020EC
:1026A00078020020940200201A0F0020EC0E002077
:1026B000445C004030B55949594C0B68594D9BB2A8
:1026C000238022882B8889B01A40920508D54FF6BE
:1026D000FF5355480B6002782B880132D2B202704A
:1026E000228802F40042134240F09480228802F4CF
:1026F0008062134240F08580228802F40052134227
:1027000004D04DF6FF72454B1A602B88228802F4E4
:10271000805213426CD1228802F4006213420BD023
:10272000424B1B78002B60D1022000F033FA4FF2AD
:10273000FF723A4B1A602B88228802F4807213428F
:102740000DD04FF6FF61354A394B11601B6813F409
:10275000004306D1374A1360072000F01BFA09B086
:1027600030BD34490B6801330B600B68032BF3D980
:1027700052F8043C043A13F00803EDD112682E4DD0
:1027800092B22E482A6050F8042B08AC04EB830464
:10279000013392B2082B44F8202CF4D12B68284A3C
:1027A00043F001032B602B681C489BB213602B681D
:1027B00023F001032B602B689BB213600368174A58
:1027C0005B05FBD54FF6FF331C481360002308AAB6
:1027D00002EB830252F8202C013392B2082B40F80E
:1027E000042BF4D100230B60B6E700F07BF99EE7E1
:1027F0004EF6FF72094B00201A6000F0CBF92B88CF
:1028000089E74FF6FF31054A0E4B11605B68984728
:102810002B8871E7FFF788FE2B8867E7445C004050
:102820001A0F0020140F0020300400203E03002067
:10283000485C0040340400202C040020005C004070
:10284000405C0040B8020020013252100ED010B49B
:1028500001F1005101F540514900002330F8024BCD
:1028600021F8234001339A42F8D110BC704700BFD1
:1028700001F10051013201F5405152104FEA41017E
:1028800005D051F8043B013A20F8023BF9D17047DA
:10289000034B9B7A13B1034B05221A60704700BFAC
:1028A000F00E00203C040020014B04221A60704707
:1028B0003C040020034B1A78202A04BF00221A701F
:1028C000704700BF38040020704700BF212810B5B2
:1028D00004D02028034610D0022010BD0E4B1A68E9
:1028E000137803F07F03212BF6D10C49002491616A
:1028F000548220468847204610BD074A1268117846
:1029000001F07F01212903D0054A0220137010BD78
:10291000034804490370E9E7100F002075290008F7
:10292000380400205D290008074B1B681B7803F062
:102930007F03212B01D00220704700F0DF00022826
:1029400014BF022000207047100F002009B10220A0
:10295000704701288CBF02200020704708B103484F
:102960007047034B08221B681A827047340300200B
:10297000100F0020FFF7F2BF10B5FEF777F9054BF7
:1029800000241B689C7200F095F800F0A3FA024B3B
:102990001C6010BD100F00203C04002010B5334B0C
:1029A000334A1B68D27900245A729C72DC7220462A
:1029B00000F05CF920464FF4007100F05FF920460A
:1029C000102100F069F92046402100F049FA8021E9
:1029D000204600F033FA204600F0CAF9254B204685
:1029E00093F82C1000F0F8F9204600F09DF92146EC
:1029F000012000F043F9C021012000F01FFA20213E
:102A0000012000F049F92146012000F05FF94FF460
:102A1000C061022000F032F94FF48071022000F012
:102A20000DFA2146022000F051F92021022000F089
:102A300033F92146032000F021F94FF48871032077
:102A400000F00EFA4021032000F0C6F94FF4405187
:102A5000032000F03BF92146032000F01DF9204639
:102A6000FFF706FD044B01221A6010BD100F002075
:102A7000D44B0008B80200203C0400200149FFF7B5
:102A800047BA00BF0C0300200149FFF741BA00BF5D
:102A9000B0020020054B1B68DB78042B04D80449E6
:102AA00001EBC301FFF734BA00207047100F00207C
:102AB0001403002038B50120FEF7CCF8064D074B73
:102AC000074C00224FF4E051012018601A602A6080
:102AD00021801960104638BD445C0040405C0040D5
:102AE000140F0020F0B5264B26491C682648A4B2D6
:102AF000002351F8042B92B240F823200133082B15
:102B0000F7D144F4806224F001054FF6FF371446F4
:102B10001B4BADB21D4E45F4806E42F001021949C7
:102B20001C601A60C3F800E00023376050F82320CF
:102B3000013392B2082B41F8042BF7D1104A45F427
:102B400081651560136811499BB243F0040313605B
:102B50000B68DB040DD54EF6FF704FF6F773086077
:102B600010680B49034013600B6923F004030B61E9
:102B7000F0BD074A136923F004031361F0BD00BFE1
:102B8000405C0040005C0040200F0020445C00409E
:102B900000ED00E070B5324C072818BF2070237894
:102BA000052B4BD8DFE803F0181F30353F0363785F
:102BB0002B49013BDBB26370637803F0FF02002B0B
:102BC0003ED14FF6EF732748274C06680625334061
:102BD00003600D70226070BD234B1B68002B30D04A
:102BE0000523237070BD4FF6FB731E4D2A681340FA
:102BF0002B60FDF7FDFF1C4B4FF43F4004210122E9
:102C0000286021701A6070BD022203236270237055
:102C100070BD6378124A013BDBB2637063787BB9A5
:102C20000423137070BD0F4A052013680A219BB25C
:102C300043F0100313602070617070BD0623237091
:102C400070BD4FF6FB73074D2A6813402B60FDF7EC
:102C5000CFFF4FF43F4206232A60237070BD00BFB0
:102C60001C0F0020405C0040400400204FF6F87329
:102C7000014A034013607047505C0040800000F13F
:102C8000804000F5B840036823F4EC4323F0700360
:102C9000194389B201607047800000F1804000F55F
:102CA000B8400368CA0623F4E04323F040039BB214
:102CB00048BF83F010038A0648BF83F0200343F423
:102CC000004343F080030360704700BF800000F1C1
:102CD000804000F5B8400368CA0423F4804323F021
:102CE00070039BB248BF83F480538A0448BF83F4C7
:102CF000005343F4004343F080030360704700BF78
:102D0000800000F1804000F5B840036823F4E04300
:102D100023F040039BB283F0300343F4004343F0BD
:102D200080030360704700BF800000F1804000F521
:102D3000B840036823F4804323F070039BB283F40C
:102D4000405343F4004343F080030360704700BFE7
:102D500040F60F62800000F1804000F5B840036843
:102D6000134043F4004343F080030360704700BF07
:102D7000FFF7EEBF800000F1804000F5B840036827
:102D80005B0408D540F60F730268134043F44043D8
:102D900043F0800303607047800000F1804000F53D
:102DA000B84003685B0608D540F60F73026813400D
:102DB00043F4004343F0C00303607047044A054BEB
:102DC000126892B202EBC00003445B0019607047C6
:102DD000505C0040023000200E4A0F4B12683E2922
:102DE00092B202EBC00003444FEA43030AD94A09F6
:102DF000C80604BF02F1FF3292B2920242F40042CE
:102E00001A6070474A08C90748BF013292021A6027
:102E1000704700BF505C004006300020064B490858
:102E20001B6849009BB203EBC00000F1005000F5A5
:102E30004050400001607047505C0040FFF7EEBF1B
:102E4000054A064B1268490892B202EBC0000344DF
:102E500049005B0019607047505C0040043000205E
:102E6000FFF7EEBF054B1B689BB203EBC00000F100
:102E7000005000F54050400000887047505C004012
:102E8000FFF7F0BF044A054B126892B202EBC00094
:102E900003445B0018887047505C004004300020F9
:102EA000FFF7F0BF054A064B126892B202EBC00072
:102EB00003445B001868C0F309007047505C004091
:102EC00006300020FFF7EEBFC3B2000A40EA03203D
:102ED000704700BF10B40549054C064A00204FF466
:102EE0003F4320600B80136010BC7047140F00201C
:102EF000445C0040405C0040094B70B51C680646CD
:102F0000256C3DB91A2000F065F91A222064294683
:102F100000F07FF9216C3046BDE8704000F002B847
:102F2000A003002010B50C46416986B001F26C7117
:102F3000036982690491016803EB430303914168CB
:102F400002EB4202029181680191C1682046009122
:102F500004490B4404490A44044900F01DFA204680
:102F600006B010BD4C4C0008174C00082C4C000853
:102F700008B5074B044613B10021AFF30080054BA1
:102F80001868836A03B19847204601F07BFD00BFB3
:102F900000000000744C00080E4B70B51E460E4C2D
:102FA0000025E41AA410A54204D056F8253098470D
:102FB0000135F8E701F068FD084B094C1E46E41A9C
:102FC000A4100025A54204D056F8253098470135B5
:102FD000F8E770BDF4030020F4030020F4030020A0
:102FE000F803002038B5074B05461C68E36B1BB996
:102FF000242000F0EFF8E063E16B2846BDE838409C
:1030000000F002B8A00300202DE9F0410C468046F4
:1030100000F0F4FC21460746404600F0F3FC466908
:10302000044606F26C76B30705D1642296FBF2F3F0
:1030300002FB13634BB94FF4C87596FBF5F305FB20
:103040001365B5FA85F35B0900E001235F4A30257B
:1030500005FB032500F006FB00F006FB5C4B1B683C
:10306000F3B17B689E4205D13968D8F80030FA691F
:1030700041B90AE0304600F04DFA0028F4D14FF093
:10308000FF330DE0934208DB01E0934207DABA6BAD
:103090009342ACBF0023012302E0002300E00123A0
:1030A0002362236A3C20012B0CBFF96B396A4FF471
:1030B000616391FBF3F603FB161393FBF0F200FB45
:1030C000123061682368891AA2681B1A921B3B2B75
:1030D00023606160A26003DD013161603C3B04E07C
:1030E000002B03DA013961603C33236063683B2BBA
:1030F00003DD0132A2603C3B04E0002B03DA013A1D
:10310000A2603C336360A368172B22DDE269183BA1
:103110000132E261A269A3600132062AC8BF00221F
:10312000A261E26823690132E26055F823108A4205
:1031300046DD01330C2B08BF6369A2EB0102E2609C
:1031400005BF013300222361226104BF6361E26194
:1031500036E0002B34DAE2691833013AE261A26901
:10316000A360013A48BF0622A261E268013AE26028
:1031700032BB2369013B01D423611DE00B23236192
:1031800063695A1E12F0030F626103F26B7305D17B
:10319000642193FBF1F201FB12324AB94FF4C8717A
:1031A00093FBF1F201FB1233B3FA83F35B0900E006
:1031B000012303F5B673E361236955F82330E36017
:1031C00000F051FA2046BDE8F08100BF784C0008BD
:1031D00068040020024B0146186800F06FB800BF79
:1031E000A0030020024B0146186800F01BB800BF86
:1031F000A003002010B501390244904207D010F816
:10320000013B11F8014FA342F7D0181B10BD00205D
:1032100010BD03460244934202D003F8011BFAE7B3
:103220007047000038B50546002944D051F8043CE9
:103230000C1F002BB8BFE41800F07AFC1E4A13687C
:10324000114613B96360146030E0A3420DD92268BF
:10325000A018834201BF18685B681218226063607F
:103260000C6023E0A24203D813465A68002AF9D121
:1032700018681918A1420BD12168014458188242DC
:10328000196013D110685268014419605A600DE04A
:1032900002D90C232B6009E021686018824201BF2B
:1032A000106852680918216062605C602846BDE8B9
:1032B000384000F03EBC38BD4804002070B5CD1C3D
:1032C00025F0030508350C2D38BF0C25002D0646CA
:1032D00001DBA94202D90C23336046E000F028FC50
:1032E000234B1C681A462146A1B10B685B1B0ED408
:1032F0000B2B03D90B60CC18CD501EE08C420BBFBA
:1033000063684B681360636018BF0C4615E00C4699
:103310004968E9E7174C23681BB9304600F02CF8E0
:1033200020602946304600F027F8431C18D0C41C02
:1033300024F00304A0420DD12560304600F0F9FBD3
:1033400004F10B00231D20F00700C31A0ED05A42CF
:10335000E25070BD211A304600F00EF80130EBD17A
:103360000C233360304600F0E4FB002070BD00BF4A
:10337000480400204404002038B5064C00230546CC
:103380000846236001F070FB431C02D1236803B19F
:103390002B6038BD400F00200EB400B54FF4027111
:1033A0009CB0ADF814106FF00041049107914FF6F6
:1033B000FF711DAB02900690084853F8042BADF83E
:1033C0001610006802A9019300F00EFC029B002277
:1033D0001A701CB05DF804EB03B07047A003002026
:1033E000034611F8012B184603F8012B002AF8D1E7
:1033F0007047034613F8012B002AFBD1181A013835
:10340000704700002DE9F0470E4680463B48D0F853
:103410000090354615F8014B09EB0400407800F0A8
:10342000080000F0FF0708B12E46F2E72D2C03D16B
:10343000B51C7478012703E02B2C04BF7478B51CED
:1034400013B1102B0AD153E0302C4FD1287800F063
:10345000DF00582845D16C78102302354FF0FF3C2F
:10346000BCFBF3FC03FB0CFA00266FEA0A0A3046A9
:1034700009EB040E9EF801E01EF0040F01D0303C71
:103480000BE01EF0030E1AD0BEF1010F0CBF4FF07F
:10349000370E4FF0570ECEEB0404A3420FDD002E83
:1034A00008DB604506D801D1544503DC03FB00402E
:1034B000012601E04FF0FF3615F8014BD8E7002E4A
:1034C00007DA2223C8F800304FF0FF302AB9BDE8F0
:1034D000F08707B1404272B106B1691E1160BDE8C4
:1034E000F0873024002BB9D10823B7E70A23B5E7CA
:1034F000302CABD0B2E7BDE8F08700BFAC030020B2
:1035000013460A46014602480068FFF77BBF00BF2A
:10351000A00300202DE9F74F044600F06FFA40F2B7
:10352000B1739C4240F3968040F26D156FF4F663E0
:10353000E318A4F2B2729B1005FB0235A4F26D727F
:103540006FF0630392FBF3F36FF4C8622B44A5188A
:103550004FF4C87294FBF2F795FBF2F502FB1747A4
:103560001D44642394FBF3F6B7FA87FE014603FB80
:10357000164600F13803019304F0030344604FEA58
:103580005E1E00934FF0070C0B7A4A2B0ED14B694D
:10359000009AEC1802B906B927B93B2BD4BF002317
:1035A000012300E000232344013B3FE0442B02D1F0
:1035B0004B692B443AE0009B2BB9002E0CBFF04620
:1035C0004FF0010800E0F046A946244B302202FBF0
:1035D0000838CC68A8F1040A0123A34204DA5AF897
:1035E00004BF0133D944F8E709F1040393FBFCFB62
:1035F000CBEBCB0ACAEB030A4B69012CB8BF012401
:10360000B3EB0A0A0B6904F1804403F1FF3304F1C0
:10361000FF3448BF0AF1070AC3EBC30358F824403C
:103620005344A34201DB073BFBE74B448C690C4A44
:1036300002FB03430C6A234441F81C3F019B99425F
:10364000A2D1C369826B9342ACBF00230123036004
:10365000012000E0002003B0BDE8F08F784C0008A6
:103660008051010070477047014B186800F002B8A4
:10367000A00300202DE9F04F8DB0074600F0BEF901
:10368000B0490446384600F0B1F9AF4E054660B97E
:10369000AE4BAF4A1860AF4B1860AF4B30681A6042
:1036A0005A60FFF79FFD356048E1316879B93068AD
:1036B000FFF798FD2846FFF79CFE411C3846FFF7B0
:1036C000FDFD306048B1294600F054FD05E000F0F2
:1036D00047FD002800F03281E9E72B780AAE3A2B4B
:1036E00008BF013533469D4A9D49284600F00CFD30
:1036F000002840F323810A9BEF18EB5C2D2B03D1AC
:1037000001374FF0FF3503E02B2B08BF01370125B0
:103710000DF1200A0DF11E0B4FF000080396CDF8B5
:1037200008A00196CDF800B0334607AA8D49384667
:10373000ADF81E80ADF8208000F0E6FC404540F377
:10374000FD80BDF81E20BDF820303C2101FB023376
:10375000BDF81C204FF4616101FB02335D437F4BD8
:1037600025627D4DDFF808922B600A9B4A461F4474
:103770007B493346384600F0C7FC404508DC2B68DF
:10378000226A6B60714B1A60724BC3F80080D5E0FF
:103790000A9BC5F80490FD18FB5C2D2B03D1013565
:1037A0004FF0FF3703E02B2B08BF01350127002323
:1037B000ADF81C30ADF81E30ADF820300A930396FA
:1037C000CDF808A00196CDF800B0334607AA6549A8
:1037D000284600F099FC002804DC236AA3F5616305
:1037E000E3630EE0BDF81E20BDF820303C2101FB54
:1037F0000233BDF81C204FF4616101FB02335F43CB
:10380000E76327460A9B4FF000091D442B782C2BB9
:1038100008BF013595F80080B8F14D0F26D10DF1A4
:103820002603029309AB00930396019633460DF1EC
:1038300022024D49284600F067FC03287ED1BDF8DE
:1038400022104B1E0B2B79D8BDF82420531E042BBD
:1038500074D8BDF82630062B70D887F80880F96038
:103860003A617B610A9B05EB03082AE0B8F14A0F35
:1038700006BF4346013544230A220BA92846059377
:10388000FFF73EFEDDF82C80ADF826004545059B90
:1038900014D14D23B9F1000F07D123720323E36044
:1038A00002232361C4F814900BE084F824300B2326
:1038B000A3620123E3620023236302E080B23B7230
:1038C00078610223ADF81C300023ADF81E30ADF84E
:1038D00020300A9398F800302F2B0BD10396CDF8A7
:1038E00008A00196CDF800B0334607AA1F4940460C
:1038F00000F00AFCBDF81E20BDF820303C2101FB81
:103900000233BDF81C204FF4616101FB0233BB613F
:103910000A9D09F10109B9F1020F454407F11C079D
:103920007FF474AF6068FFF7F5FD226A074B1A60F9
:10393000E36B9B1A074A18BF012313600DB0BDE863
:10394000F08F00BFD84C0008640400206C040020F5
:10395000DB4C000868040020A4030020570400206A
:10396000DF4C0008024D0008EE4C0008014D000835
:103970004C0400202DE9F84F07468B46904600F096
:1039800016FC194B1D689A463DB15C46234613F858
:10399000012B42B13D2A1C46F8D1384600F008FC04
:1039A0000020BDE8F88FCBEB0404A94659F8040BBE
:1039B0000028F2D02246594600F0E4FB88B959F8B5
:1039C000043C1E191B5D3D2B0BD1DAF80030384644
:1039D000ED1AAD10C8F8005000F0EAFB701CBDE80D
:1039E000F88F4D46E1E700BFF003002007B501AABC
:1039F000FFF7C0FF03B05DF804FB0000004870470C
:103A0000B00300200268464BF0B592FBF3F403FBD1
:103A10001422002ABCBF02F5A83202F5C0724FF48E
:103A2000616092FBF0F300FB13224FF03C008B60CF
:103A300092FBF0F300FB132204F52F24ACBF04F635
:103A40006C2404F66B244B600A600723E21C92FB93
:103A5000F3F3344DC3EBC30394FBF5F5D31A48F6E7
:103A6000AC6240F2B4578B612F4B304803FB0544E6
:103A7000B4FBF2F2B4FBF7F3B4FBF0F02244D21A39
:103A800048F69466131A40F26D12B3FBF6F6B3FBD8
:103A9000F2F0B3FBF7F33444E31A02FB103303EB09
:103AA000830299240232B2FBF4F25443A61C05248B
:103AB000B6FBF4F40A2A34BF02266FF00906164456
:103AC0004FF4C87202FB05055F1C012E98BF01353B
:103AD000B3F5997FA7EB040702D3A3F5997214E01D
:103AE000820705D16424B0FBF4F204FB12024AB948
:103AF0004FF4C872B0FBF2F402FB1400B0FA80F28B
:103B0000520900E001223B331A44A5F26C750023F0
:103B1000CA614D610E61CF600B620846F0BD00BF07
:103B200080510100B13A02004FC5FDFFB03A0200DA
:103B3000704770472DE9F0478E6882469E420C46DA
:103B4000914698463ED88A8912F4906F3AD02568FB
:103B5000096902236F1A656905EB450595FBF3F5C5
:103B60007B1C43449D4238BF1D4653050FD5294653
:103B7000FFF7A4FB064698B13A46216900F027FBFF
:103B8000A38923F4906343F08003A38113E02A46C2
:103B900000F043FB064670B921695046FFF742FB2F
:103BA0000C23CAF80030A3894FF0FF3043F04003E4
:103BB000A381BDE8F08726613E44266046466561E4
:103BC000ED1BA560464528BF46464946324620685B
:103BD00000F008FBA36800209B1BA36023681E4421
:103BE0002660BDE8F08700002DE9F04F9DB00393FB
:103BF0008B8980461C060D4616460DD50B695BB9B0
:103C00004021FFF75BFB2860286118B90C23C8F836
:103C10000030CDE040236B610023099320238DF811
:103C20002930DFF89CB130238DF82A3037463C46E6
:103C300014F8013B1BB9B7EB060910D003E0252BA4
:103C4000F9D02746F3E74B46324629464046FFF770
:103C500071FF013000F0A780099B4B4409933B782A
:103C6000002B00F0A08000234FF0FF320493079355
:103C7000059206938DF853301A9301260522217878
:103C80004E4800F096FA671C049B38B14B4A3C46FC
:103C9000801A06FA00F018430490EFE7D90644BFF3
:103CA00020228DF853201A0744BF2B228DF8532071
:103CB00022782A2A03D0079A00210A200BE0039ACF
:103CC000111D12680391002A10DA524243F00200DB
:103CD000079204900BE027463B780134303B092BD8
:103CE00003D800FB02320121F5E701B107923B78CE
:103CF0002E2B1ED17B782A2B0AD1039B02371A1D4B
:103D00001B680392002BB8BF4FF0FF33059310E000
:103D1000002319460593781C0A2407463A78013097
:103D2000303A092A03D804FB01210123F5E703B146
:103D3000059103223978224800F03BFA40B1402334
:103D4000CBEB000003FA00F0049B0137184304900A
:103D5000397806221B487E1C8DF8281000F029FABD
:103D600088B1194B33B9039B073323F0070308339A
:103D7000039314E003AB00932A46144B04A9404676
:103D8000AFF3008007E003AB00932A460F4B04A972
:103D9000404600F093F8B0F1FF3F824603D0099B04
:103DA0005344099342E7AB895B0601D4099801E0CB
:103DB0004FF0FF301DB0BDE8F08F00BF154E00087A
:103DC0001B4E00081F4E000800000000353B000895
:103DD0002DE9F04791461F460A698B6806469342D3
:103DE000B8BF1346C9F8003091F843200C46DDF8FF
:103DF000208012B10133C9F800302368990642BF10
:103E0000D9F800300233C9F80030256815F00605EE
:103E100010D104F1190A07E0012352463946304611
:103E2000C04701301AD00135E368D9F800209B1A49
:103E30009D42F1DB94F843302268003318BF012320
:103E400092060FD5E118302081F843005A1C94F8EF
:103E500045102244023382F8431003E04FF0FF3054
:103E6000BDE8F08704F1430239463046C0470130CF
:103E7000F4D02268D9F80050E36802F00602042A60
:103E800008BF5D1B2269A3680CBF25EAE575002504
:103E90009342C4BF9B1AED184FF000091A344D45E8
:103EA00009D00123224639463046C0470130D5D0DB
:103EB00009F10109F3E70020BDE8F0872DE9F0439F
:103EC00017460A7E85B06E2A984606460C460C9B1D
:103ED00001F1430E00F0AE8011D8632A22D009D838
:103EE000002A00F0BB80582A40F0CA8081F84520A3
:103EF000834955E0642A1ED0692A1CD0C0E0732A89
:103F000000F0B08009D86F2A2ED0702A40F0B88017
:103F10000A6842F020020A603EE0752A24D0782A1E
:103F20003AD0ADE01A6801F14205111D196013681D
:103F300084F84230A8E021681A6811F0800F02D09E
:103F4000111D196008E011F0400F02F10401196021
:103F500002D0B2F9003000E01368002B3CDA2D22C9
:103F60005B4284F8432037E021681A6811F0800F23
:103F700002D0111D196007E011F0400F02F1040199
:103F8000196001D0138800E01368227E5C496F2A13
:103F900014BF0A2208221BE078225A4984F84520DF
:103FA0002268186812F0800F00F104051D6003D12B
:103FB000550601D5038800E00368D00744BF42F0EE
:103FC000200222601BB9226822F020022260102207
:103FD000002084F8430001E049490A226568002D69
:103FE000A56008DB206820F0040020602BB9002DBC
:103FF0007DD175460CE0002B79D07546B3FBF2F00D
:1040000002FB1033CB5C05F8013D03460028F5D1D7
:10401000082A0BD12368DA0708D5236962689A4217
:10402000DEBF302305F8013C05F1FF35C5EB0E037B
:1040300023612EE008681A6810F0800F496903D0E8
:10404000101D1860136808E010F0400F02F1040022
:104050001860136801D0198000E019600023236103
:10406000754616E01A68111D19601568002162680E
:10407000284600F09EF808B1401B6060636804E0C9
:1040800004F1420584F8422001232361002384F8CF
:104090004330CDF800803B4603AA21463046FFF767
:1040A00097FE013002D14FF0FF3026E023692A4607
:1040B00039463046C0470130F5D023689B0710D5FC
:1040C000002504F1190907E001234A463946304624
:1040D000C0470130E7D00135E368039A9B1A9D423F
:1040E000F2DBE068039B9842B8BF184605E00B7806
:1040F00004F1420584F842308AE705B0BDE8F08358
:10410000264E0008374E00080EB430B59CB01FACE8
:104110004FF4017254F8045BADF81420029006903D
:10412000FFF767F90B4B03900B9300230F93149346
:104130004FF6FF7307900848ADF816302A4623461D
:1041400002A90068019400F0E9F81CB0BDE8304015
:1041500003B070475D410008A003002000207047B5
:1041600010F8012B11F8013B012A28BF9A42F7D021
:10417000D01A7047034611F8012B03F8012B002ACF
:10418000F9D1704730B582B1451E013915F8013FAC
:1041900011F8014FA34206D1EC431444E04201D090
:1041A000002BF3D11C46181B30BD104630BD7047A4
:1041B000704710B5C9B202449042034605D01C783E
:1041C00001308C42F8D1184610BD002010BD10B54A
:1041D000431E0A44914204D011F8014B03F8014FE9
:1041E000F8E710BD884210B501EB020301D8421E6A
:1041F0000BE09842FBD28118D21AD34204D013F8B4
:10420000014D01F8014DF8E710BD994204D011F8B5
:10421000014B02F8014FF8E710BDF8B50746154607
:104220000E4621B91146BDE8F840FFF747B81AB964
:10423000FEF7F8FF2846F8BD00F00BFC85420ED9CA
:1042400029463846FFF73AF8044650B131462A4627
:10425000FFF7BDFF31463846FEF7E4FF01E0304688
:10426000F8BD2046F8BD4B1C70B50E46144602D171
:104270004FF0FF3070BD9389CDB223F020039381BE
:10428000536B526883B1A36B9A4207DA23685A1EB4
:10429000226003F8016C636801331FE0214600F0DF
:1042A0009FFB0028F2D0E3E72169236851B19942CE
:1042B00008D213F8011C8D4204D1013B0132236066
:1042C00062600CE0E36304F1440363630323A363CC
:1042D0002346226403F8466F236001236360284667
:1042E00070BD10B50C46496B69B104F144039942A5
:1042F00001D0FEF797FF236C00206063636013B169
:10430000E36B236010BD23694FF0FF30236000236F
:104310006360A38943F02003A38110BD2DE9F04F12
:10432000DFF89C9207460D46CA46ADF5257D019300
:104330000023469347939E4B0DF10C08A2939D4B8F
:10434000DFF874B2CDF82081A3931478002C00F02C
:104350002781D9F8003023445B7803F0080303F089
:10436000FF01F3B16B68002B10DD2B68DAF8000059
:104370001978014449780C0710D547990133013168
:10438000479169682B6001396960EBE7A39B294677
:10439000384600929847009A0028E6D0561C3246CC
:1043A000D3E7252C02F1010652D143914591537870
:1043B0002A2B02BF1023961C43930A2231783446DD
:1043C000A1F13003092B06F1010605D8459B02FB3C
:1043D0000313303B4593F1E703227748FFF7E9FEEB
:1043E00040B134460123CBEB000003FA00F0439BBD
:1043F00003434393661C2478672C16D8652C7FD220
:10440000472C07D8452C7BD2002C00F0CB80252CE4
:104410001ED077E05B2C51D002D8582C3ED071E0F2
:10442000632C57D0642C3FD06CE0702C32D007D86E
:104430006E2C55D03AD8692C64D1002344933BE0CC
:10444000752C31D0782C29D0732C5BD102233FE01E
:104450006B68002B0DDD2B681A78944240F0A08029
:1044600001336A682B60479B013A01336A604793C6
:1044700095E7A39B2946384698470028EBD04698F5
:10448000002800F08F80AB8913F0400F18BF4FF069
:10449000FF3089E0439B43F020034393439B43F465
:1044A00000734393102302E00A2300E008236E2CDC
:1044B000449301DD04230BE0032309E03146404629
:1044C00000F0D8F90646439B43F040034393012391
:1044D00049931BE0439B43F0400343930023F7E7DA
:1044E000439AD0063FF55BAF12F0010F019A479B4C
:1044F00002F104010191126814BF138013604EE7AA
:104500000523E5E7032349930A2344936B68002BB3
:1045100003DD439B590611D518E0A39B2946384675
:1045200098470028F5D0AAE7479A013247926A686F
:10453000013A002A6A6013DD01332B602B68DAF838
:1045400000101A780A4452781207EDD4499B022BC6
:104550000DDC01AB2A4643A9384600F033F819E0D8
:10456000A39B2946384698470028E7D087E7042BC5
:1045700006DC01AB2A4643A9384600F089F809E079
:104580000E4B002B3FF40BAF01AB2A4643A9384634
:10459000AFF30080012803D002287FF400AF6EE75C
:1045A000469801E04FF0FF300DF5257DBDE8F08F16
:1045B00067420008E34200081B4E000800000000AC
:1045C000AC0300202DE9F84315468A6880460C4666
:1045D00032B98A69002A0CBF01224FF0FF328A608B
:1045E0002268DFF8A890D10658BF1A684FF000067D
:1045F0005EBF111D19601768A069F8B923680136FC
:10460000DA065EBF2B681B783B702A686B6802F184
:1046100001022A60A26803F1FF3302F1FF326B60EE
:1046200058BF0137A260E2B1002BE5DCD4F880313D
:104630002946404698470028DED012E0012806D1DE
:104640002B681A7863699B5C002BD7D119E002288C
:1046500007D12B68D9F800201B7813445B781B071F
:10466000CCD5236813F0100305D1E2680132E26073
:10467000A26902B13B70236900201E442661BDE897
:10468000F883002EEDD1BDE8F88300BFAC03002015
:104690002DE9F04F0C469A46724B87B0834616467A
:1046A00093E8070003ABA76883E807006E4BA16996
:1046B0006E4A04F11C09032918BF1A467B1EB3F584
:1046C000AE7F84BF40F25D13A360236888BF6FF4A0
:1046D000AE7543F4506323604B4600928CBF7F1944
:1046E00000274FF000083168019303AB53F828000E
:1046F00002220978FFF75DFD019B002833D0B8F155
:10470000010F0BD162682AB908226260226842F464
:1047100000722260226822F4A0620CE0B8F1020F5D
:104720000AD1226802F4C061B1F5007F1BD11021CB
:10473000616042F480722260A268511EA16092B151
:1047400032685D1C511C316012781A707368013B2D
:10475000002B736006DCD4F8803131465846984708
:10476000002841D12B4608F10108B8F1030FBAD156
:1047700062680AB90A22626062683D496069891A02
:10478000019300F077F8019B4FF000081D46A368E5
:1047900063B3316860690A78805C38B3302A226874
:1047A00008D1100506D508F1010857B10133013FC2
:1047B000A36006E022F4106222600B78013505F850
:1047C000013C7368013B002B736003DD33680133E8
:1047D000336005E0D4F8803131465846984728B90F
:1047E000A368013BA360D2E74FF000082368D90516
:1047F0000CD54D4508D915F8011C6F1ED4F87C3135
:104800003246584698473D464D4527D0226812F01B
:1048100010021BD12A70636849465846009EB04773
:104820002268DAF8003012F0200F07D1D20705D540
:104830001A1DCAF800201B68188004E01A1DCAF867
:1048400000201B681860E3680133E3602369C9EB4B
:10485000050545441D442561002000E0012007B006
:10486000BDE8F08F484E000805340008D548000820
:10487000644E000870B50B78441E5E2B13BF4A1CB3
:104880008A1C4B78002108BF012100F1FF0504F8C4
:10489000011FAC42FBD10BB9501E70BD81F0010469
:1048A0001146C4540D784A1C2D2D06D05D2D0FD015
:1048B0000DB12B46F4E7084670BD4E785D2EF8D05A
:1048C000B342F6DC023101339E42C454FBDCE9E71B
:1048D000104670BD2DE9F0470F4680463F48D0F89E
:1048E00000903D4615F8014B09EB0400407800F0BC
:1048F000080000F0FF0608B12F46F2E72D2C03D187
:10490000BD1C7C78012603E02B2C04BF7C78BD1CE9
:1049100013B1102B0AD15BE0302C57D1287800F06E
:10492000DF0058284DD16C7810230235002E14BFBB
:104930004FF0004C6FF0004CBCFBF3FA00273846F8
:1049400003FB1ACC09EB040E9EF801E01EF0040FE5
:1049500001D0303C0BE01EF0030E1BD0BEF1010F66
:104960000CBF4FF0370E4FF0570ECEEB0404A342AE
:1049700010DDB7F1FF3F0AD0504506D801D164459C
:1049800003DC03FB0040012701E04FF0FF3715F87F
:10499000014BD7E77B1C0CD1002E4FF0220314BF34
:1049A0004FF000406FF00040C8F800302AB9BDE871
:1049B000F08706B1404272B107B1691E1160BDE8CF
:1049C000F0873024002BB1D10823AFE70A23ADE7ED
:1049D000302CA3D0AAE7BDE8F08700BFAC030020CD
:1049E0002DE9F0410C46496B04F1440399421AD178
:1049F0004FF48061FEF762FC18B94FF0FF30BDE85C
:104A0000F0814FF48063A36394F84630606380F8CC
:104A1000FF3394F8453000F2FD30437094F8443091
:104A20000370206012E0A66B77003A46FFF7F5FBB3
:104A300005460028E1D000EB060801463246404614
:104A4000FFF7C5FBC4F800806563A7630020BDE8DD
:104A5000F08151F8040C0028BEBF091851F8043C3D
:104A6000C018043870470000044B0246196809B9A1
:104A700003491960186802441A60704774040020E2
:104A8000480F0020FEE70000F8B500BFF8BC08BCE6
:104A90009E467047F8B500BFF8BC08BC9E467047FC
:104AA0005B22253032782530327825303278253037
:104AB0003278222C22256C64225D00002C0000003C
:104AC0005D7D00007B22676174655F6964223A2521
:104AD0006C642C202264617461223A5B0000000047
:104AE0005B25735D2053696E6B726F6E69736173C2
:104AF000692077616B74752073656C657361692ECD
:104B00000D0A00005246494420446574656374658B
:104B1000643A2025303278253032782530327825B5
:104B20003032780D0A000000393939393900000077
:104B30000000000000000000000000002E00000047
:104B4000434F4E4E454354204F4B00003E00000063
:104B500074696D657374616D703D000025630000BC
:104B60002603530054004D006900630072006F007B
:104B700065006C0065006300740072006F006E00D9
:104B8000690063007300000012010002020000408F
:104B900083044057000201020301000004030904DA
:104BA0003203530054004D00330032002000560001
:104BB000690072007400750061006C002000430001
:104BC0004F004D00200050006F0072007400200064
:104BD0002000000009024300020100C03209040065
:104BE000000102020100052400100105240100015A
:104BF000042402020524060001070582030800FFC1
:104C000009040100020A0000000705030240000039
:104C10000705810240000053756E4D6F6E54756537
:104C2000576564546875467269536174252E3373F1
:104C300020252E337325336420252E32643A252E09
:104C400032643A252E32642025640A004A616E4699
:104C500065624D61724170724D61794A756E4A7537
:104C60006C4175675365704F63744E6F764465632E
:104C700043000000400300201F0000001C00000053
:104C80001F0000001E0000001F0000001E000000AA
:104C90001F0000001F0000001E0000001F00000099
:104CA0001E0000001F0000001F0000001D0000008B
:104CB0001F0000001E0000001F0000001E0000007A
:104CC0001F0000001F0000001E0000001F00000069
:104CD0001E0000001F000000545A00474D540025DC
:104CE00031305B5E302D392C2B2D5D256E004D252E
:104CF0006875256E2E256875256E2E256875256EBE
:104D0000002F256875256E3A256875256E3A256849
:104D100075256E000020202020202020202028281B
:104D2000282828202020202020202020202020206B
:104D300020202020208810101010101010101010AB
:104D400010101010100404040404040404040410DB
:104D50001010101010104141414141410101010169
:104D60000101010101010101010101010101010133
:104D7000101010101010424242424242020202023F
:104D80000202020202020202020202020202020203
:104D900010101010200000000000000000000000B3
:104DA0000000000000000000000000000000000003
:104DB00000000000000000000000000000000000F3
:104DC00000000000000000000000000000000000E3
:104DD00000000000000000000000000000000000D3
:104DE00000000000000000000000000000000000C3
:104DF00000000000000000000000000000000000B3
:104E000000000000000000000000000000000000A2
:104E10000000000000232D302B2000686C4C006542
:104E200066674546470030313233343536373839D6
:104E30004142434445460030313233343536373809
:104E40003961626364656600664E0008694E000859
:104E50006C4E0008412D46612D66383930313233B1
:104E6000343536375D002B2D003030007858000087
:104E70000000000000000000000000000000000032
:104E80000000000000000000000000000000000022
:104E90000000000000000000000000000000000012
:104EA0000000000000000000000000000000000002
:104EB00000000000000000000000000000000000F2
:104EC00000000000000000000000000000000000E2
:044ED00000000000DE
:084ED40074B2FF7F0100000031
:104EDC00020406080000000001020304010203049E
:104EEC000607080900FF01012D2D2D446562756729
:104EFC00206C6F672073746172742D2D2D0D0A0058
:104F0C0041542B43495053544152543D2254435025
:104F1C00222C226774632E617269656661746B68FA
:104F2C0075722E7765622E6964222C38300D0A005A
:104F3C00726669643D2530327825303278253032FE
:104F4C00782530327826676174653D25732674693F
:104F5C006D653D256C64000041542B434950434C16
:104F6C004F53450D0A000000474554202F626F74C3
:104F7C002F6765745F7365727665725F74696D65B2
:104F8C002E70687020485454502F312E310D0A4821
:104F9C006F73743A206774632E617269656661740D
:104FAC006B6875722E7765622E69640D0A436F6E9D
:104FBC006E656374696F6E3A20636C6F73650D0A6E
:104FCC000D0A000041542B43495053454E440D0AE1
:104FDC0000000000504F5354202F626F742F6761F4
:104FEC0074655F656E7472792E70687020485454C5
:104FFC00502F312E310D0A486F73743A2067746349
:10500C002E617269656661746B6875722E77656264
:10501C002E69640D0A436F6E6E656374696F6E3A28
:10502C0020636C6F73650D0A436F6E74656E742D1F
:10503C00547970653A206170706C69636174696F42
:10504C006E2F6A736F6E0D0A436F6E74656E742DDE
:10505C004C656E6774683A2025640D0A0D0A257339
:10506C000D0A000041542B434950534855540D0A26
:10507C000000000041542B435354543D22696E747C
:10508C0065726E6574222C22776170222C227761F6
:10509C0070313233220D0A0041542B43494943529B
:1050AC000D0A0000726669643D3836666665636495
:1050BC003526676174653D312674696D653D313502
:1050CC0030363630323239300000000041542B4338
:1050DC00474154543D310D0A0000000041542B430C
:1050EC00494653520D0A0000726669643D653239B7
:1050FC00363032303726676174653D312674696D00
:10510C00653D3135303636303232393000000000F2
:10511C0041540D0A0000000041542B4349504D5599
:10512C00583D300D0A00000000A24A041A03530037
:10513C0054004D003300320000000000000000005D
:10514C000000000000000000B5240008B124000895
:10515C00B1240008B1240008B1240008B1240008CF
:10516C00B1240008B1240008B1240008C1240008AF
:10517C00B1240008B1240008B1240008B1240008AF
:10518C00D44B000843000000792900089D29000831
:10519C00B5280008C9280008CD28000829290008CE
:1051AC004D2900087D2A0008892A0008952A000844
:1051BC000000000040000000B12400089128000805
:1051CC00B1240008B1240008B1240008B12400085F
:1051DC00B1240008B1240008A9280008884B000855
:1051EC00120000009C4B000804000000604B0008FB
:1051FC0026000000A04B0008320000005C020020DA
:10520C001A00000000C201000000080004010100A7
:10521C0000000000704E0008904E0008B04E0008D0
:10522C000000000000000000000000000000000072
:10523C00704C00080000000000000000000000009E
:10524C000000000000000000000000000000000052
:10525C000000000000000000000000000000000042
:10526C000000000000000000000000000000000032
:10527C0040030020DB4C0008DB4C0008144D0008F8
:10528C0001000000000000004A00000000000000C7
:10529C000000000000000000000000000000000002
:1052AC00000000004A0000000000000000000000A8
:1052BC0000000000000000000000000000000000E2
:0C52CC007004002011010008ED00000833
:0400000508000000EF
:00000001FF
