:020000040800F2
:1000000000500020751000082D1100083111000863
:1000100035110008391100083D11000800000000EA
:100020000000000000000000000000004111000876
:100030004511000800000000491100086D12000879
:10004000CF100008D1100008D3100008D510000808
:10005000D7100008D9100008DB100008DD100008D8
:10006000DF100008E1100008E3100008E5100008A8
:10007000E7100008E9100008EB100008ED10000878
:10008000EF100008F1100008F3100008F510000848
:100090004D110008F9100008FB100008FD100008C1
:1000A000FF100008011100080311000805110008E5
:1000B000750D0008091100080B1100080D1100084A
:1000C0000F11000811110008131100081511000884
:1000D00017110008D11500081B110008B1160008FF
:1000E0001F110008211100085111000810B5054C1E
:1000F000237833B9044B13B10448AFF300800123D4
:10010000237010BD0404002000000000E038000847
:10011000084B10B51BB108490848AFF300800848E8
:10012000036803B910BD074B002BFBD0BDE810409E
:10013000184700BF0000000008040020E038000855
:100140000404002000000000154B002B08BF134BD7
:100150009D46A3F5803A00218B460F461348144A6A
:10016000121A02F08FFD0F4B002B00D098470E4B58
:10017000002B00D098470020002104000D000D48FE
:10018000002802D00C48AFF3008002F055FD20009B
:10019000290000F057FC02F03BFD00BF0000080002
:1001A00000500020000000000000000004040020B7
:1001B0009C0B0020000000000000000040F0BF6029
:1001C000024B40F40030D860704700BF00ED00E003
:1001D000C3785BB9037801215A09164803F01F035D
:1001E000203201FA03F340F82230704730B4124B4A
:1001F0008278D9684478C9430F23C1F30221C1F141
:100200000405CB40AC401340027823431B0102F1AC
:100210006042DBB202F5614282F8003303780122CA
:1002200003F01F0003495B09824041F8232030BCE2
:10023000704700BF00E100E000ED00E08379002B93
:100240002BD010B41F4B01681A6822EA01021A6011
:100250005A68016822EA01025A600279016802F1D3
:10026000804202F582321468214311609A68016865
:1002700022EA01029A60DA68016822EA0102DA6081
:100280004279102A14D002F1804303F582330268C8
:1002900019680A431A6010BC70470379016803F1BA
:1002A000804303F582331A6822EA01021A6070471C
:1002B000996802680A439A600268D9680A43DA605A
:1002C00010BC704700040140014B5861704700BFEB
:1002D00000040140CB782DE9F04103F00F06DB0666
:1002E00048BF8B780C8848BF1E4314F0FF0F26D000
:1002F0000568002301274FF00F0803E00133082BA6
:100300001BD00C8807FA03F232EA0404F6D19C00F1
:1003100091F803E008FA04FC25EA0C0506FA04F457
:10032000BEF1280F45EA040538D0BEF1480F03F1AD
:10033000010308BF0261082BE3D105600C88FF2C84
:100340002AD94568002301274FF00F0C03E0013341
:10035000082B20D00C8803F1080207FA02F232EAD7
:100360000404F4D191F803E09C00BEF1280F04BF0F
:10037000426191F803E00CFA04F8BEF1480F03F172
:10038000010325EA080506FA04F408BF0261082BF8
:1003900045EA0405DED14560BDE8F0814261ADE784
:1003A0004FF6FF710222042301808270C3707047F0
:1003B00001617047416170470AB94161704701614D
:1003C000704700BF30B40028184B00F44012B4BF8F
:1003D000DB695B68B2F5401F84B21ED0C20213D540
:1003E000C0F303450322AA4023EA020343F07063EB
:1003F00019B1420D1201944023430C4A0028B4BFA6
:10040000D361536030BC7047420D120104FA02F20E
:1004100023EA020343F07063EAE7044D23F07063BC
:100420006A6822F070626A60E2E700BF0000014083
:10043000014B1860704700BF20000E42014B18604E
:10044000704700BFD8004242064B002201281A70B4
:100450001A7005D0042802D105221A70704770471F
:100460001870704720100240024A136A1843106245
:10047000704700BF00100240014B1860704700BF7A
:100480003C04424230B4214A536803F00C03042B6D
:1004900006D0082B25D01BB11D4A1346026001E08F
:1004A0001B4B0360194A1B4C51681B4DC1F30311D0
:1004B000615CCB4043605168C1F30221615C23FA67
:1004C00001F181605168C1F3C221615CCB40C3601E
:1004D0005268C2F38132AA5C30BCB3FBF2F3036111
:1004E000704753685168C3F38343C90303F10203A0
:1004F00007D55268920304D4054A02FB03F3036054
:10050000D0E7064A02FB03F30360CBE7001002408A
:1005100000127A00040000200000002000093D00C5
:1005200029B9054A936923EA000090617047024B9C
:100530009A691043986170470010024029B9054A32
:10054000D36923EA0000D0617047024BDA69104397
:10055000D8617047001002404309012B0BD0022BD9
:10056000094B00F01F000CBF1B6A5B6A23FA00F006
:1005700000F001007047044B00F01F001B6823FAD5
:1005800000F000F00100704700100240074A118B94
:10059000938B108B89B280B281429BB21DBF938B2B
:1005A0009BB243EA004043EA014070470028004004
:1005B000084A010C938880B29BB243F010039380E9
:1005C00011839083938823F010031B041B0C9380EA
:1005D000704700BF00280040084AC0F303419388D9
:1005E00080B29BB243F01003938011819081938875
:1005F00023F010031B041B0C93807047002800405D
:10060000024A93889B06FCD5704700BF0028004033
:1006100005490A468B8823F008031B041B0C8B80BA
:1006200093881B07FCD5704700280040254A0388A3
:1006300090429BB212D002F5006290420ED0B0F10F
:10064000804F0BD0A2F59832904207D002F580621D
:10065000904203D002F58062904203D14A8823F091
:1006600070031343184A904224D002F580629042EE
:1006700020D0CA8823F440739BB2134303808A8836
:10068000104B82850A88984202850ED00F4B984203
:100690000BD003F54063984207D003F5806398427E
:1006A00003D003F58063984201D10B7A03860123BE
:1006B0008382704703808B8883850B8803850123A1
:1006C00083827047002C014000100040003401403C
:1006D0004FF6FF72002382800380C3804380037241
:1006E000704700BF038829B923F001031B041B0CCA
:1006F000038070479BB243F001030380704700BF43
:1007000083899BB21AB923EA010181817047194399
:1007100081817047FFF7F4BFC94389B201827047F6
:1007200030B504460D46038ACA889BB223F4405371
:100730001343038282890B89888892B249890343D3
:1007400022F4B0520B4322F00C0213439BB2A3815C
:10075000A38AAA899BB223F4407387B01343A38270
:1007600001A8FFF78FFE04991A48039BA2898442CF
:1007700008BF0B4612F4004F2A6803EB830314BF33
:100780005200920003EB8303B3FBF2F3124DA189F5
:10079000A5FB03206422400900FB12330A044FEA40
:1007A00000100AD41A013232A5FB0223C3F343130B
:1007B00003439BB2238107B030BDD9003231A5FB82
:1007C0000131C1F3421242EA00039BB2238107B018
:1007D00030BD00BF003801401F85EB5100234FF4AE
:1007E00016510C22016042818380C3800381838182
:1007F000704700BF838929B923F400531B041B0CE5
:10080000838170479BB243F400538381704700BFDC
:1008100010B401F01F04C1F342110123012903FAAE
:1008200004F30FD002290CBF103014302AB902682B
:1008300022EA0303036010BC70470268134303609D
:1008400010BC70470C30F1E7C1F30801818070479C
:100850008088C0F308007047C1F3421210B401232E
:1008600001F01F04012A03FA04F315D0022A0CBF79
:10087000028A828A92B21340028892B24BB101235B
:10088000090A03FA01F10A4214BF1846002010BCFD
:100890007047184610BC7047828992B21340EBE74C
:1008A000B2B1002370B41E46541EE4B20134640099
:1008B000020F092A02F1300586BF3732CA54CD54DF
:1008C000CA180233A3424FEA00105670F0D170BC30
:1008D000704700BF10B5012182B02020FFF720FE35
:1008E0004FF400740322142301A90D488DF806204B
:1008F0008DF80730ADF80440FFF7ECFC4FF4802092
:10090000FFF7E2FC074B082101224FF48024184630
:100910001C6059719A71FFF791FC02B010BD00BFC5
:10092000001401409804002008B50020FFF786FD60
:10093000BDE8084001214FF40000FFF7FFBD00BFF4
:10094000064B9B7A23B9064B01221A6000F004BCC7
:10095000034B05221A6000F0FFBB00BF480B0020CC
:100960004004002010B54FF4A06082B0FFF726FCD1
:1009700001241421022201A800238DF804108DF80F
:1009800005208DF806308DF80740FFF721FC2A235B
:1009900001A88DF805408DF80430FFF719FC02B06E
:1009A00010BD00BF4FF4007110B90348FFF700BD40
:1009B0000148FFF7FFBC00BF001401400A4B0B4A7F
:1009C0001B681068181800D1704710B5084B082232
:1009D0001C680849FFF764FF2046BDE81040042268
:1009E0000549FFF75DBF00BFE8F7FF1FF0F7FF1FE6
:1009F000ECF7FF1FB2020020C20200203F2901D9FC
:100A00000020704738B5084B8CB222460025C02123
:100A10001D6001F0A5FD2146012002F05BF80120D8
:100A200001F0FAFF012038BD1400002008B5044B86
:100A3000002203201A6002F003F8012008BD00BF65
:100A4000150000202DE9F04F95B0FFF743FFFFF7A9
:100A50006BFFFFF787FF01F0D7FBA44BA4491B688E
:100A6000A44AA1FB0313A4489B09013B00240721CE
:100A7000F025536080F823509460116000F006FC6C
:100A800001211D20FFF74CFD04A8FFF789FC4FF45E
:100A900000551022022304A998488DF813208DF8E0
:100AA0001230ADF81050FFF715FC00F051FC9449DE
:100AB000944800F099F900F0B3F9FFF7A1FD00F0B8
:100AC00071FAFFF775FDA146FFF79AFD8E4D00F014
:100AD00001FC8E4E8DF81840DFF894828C4F8D4CBF
:100AE0004FF0010B00224FF480518B48FFF764FC5C
:100AF0002B68052B13D022684FF40051003218BF29
:100B000001227E48FFF758FC2368C820B3FA83F31C
:100B10005B0923604FF0010B00F0A0FBE2E7FFF759
:100B200085FF33682BB198F80030012B56D0002395
:100B30003360BBF1000FD5D1784800F03DFD0028AF
:100B4000D0D1764800F0E0FC14AB4B4409F1010928
:100B5000B9F1030F03F83C0CC4DD9DF817E09DF8D4
:100B600016009DF815106E4BD9461A68CDF808E0AE
:100B70009DF814300190009107A86A4902F08AF8A4
:100B800007A802F0ABF8C1B207A8FFF737FF644B24
:100B900065491A6807A802F07DF807A802F09EF8D8
:100BA000C1B207A8FFF72AFF0122604907A802F097
:100BB00071F8FFF7EBFC07A9024605A800F0B2F9AF
:100BC000574B5B491A6807A802F064F807A802F0BF
:100BD00085F8C1B207A8FFF711FF83E7BBF1000F4B
:100BE00037D13A784A4B312A3DD01A78322A3ED052
:100BF0001A78332A3FD01A78342A40D01A78352A06
:100C000041D01B78362B42D03A78414B372A42D01C
:100C10001A78382A43D01A78392A44D01A782F2AD9
:100C200052D01A78302A54D01978C9B20D2954D02C
:100C30003368002B3FF47BAF4FF0000A17F80A101F
:100C4000304800F089FC32680AF1010A9245F5D378
:100C50006DE7384802F042F8C1B23648FFF7CEFEE1
:100C60004FF0000B63E7344800F0C8F85FE7334803
:100C700000F0C4F85BE7324800F0C0F857E73148AD
:100C800000F0BCF853E7304800F0B8F84FE72F48C1
:100C900000F0B4F84BE72E4800F0B0F847E72D48D5
:100CA00000F0ACF843E72C4802F018F82B4B024652
:100CB0002B492C4801F0EEFF2A4800F09FF81A213A
:100CC000104800F049FC32E7274802F007F8264BAD
:100CD000EDE7264800F092F829E70A4800F03CFCCE
:100CE0000A21084800F038FC21E700BFAC020020D0
:100CF000D34D621010E000E000ED00E00010014074
:100D00009C080020E809002040040020380B002047
:100D10005804002020040020000C0140500700204F
:100D20002404002048360008703600088836000881
:100D30008C36000818000020E80100209C020020EA
:100D400050020020F80100201C0200206002002058
:100D500030000020380100206C02002060000020DC
:100D600048010020040500202802002088000020FF
:100D700014000020F0B50121ADF5017D4FF0804059
:100D8000FFF7CAFC144B0624FF20587019460026B2
:100D900001250327224611489F701E701E71DD70C9
:100DA0005D711C6200F014FD0D4B1B68052B02D019
:100DB0000DF5017DF0BDFFF7E9FB0A4902466846E3
:100DC00001F068FF684601F089FFC1B26846FFF78D
:100DD00015FE0DF5017DF0BDA404002004060020E1
:100DE00040040020A0360008024A034B106019603E
:100DF000704700BFCC040020C804002070B5044632
:100E000001F06CFF002808DD044E251814F8011BC2
:100E1000306800F0A1FBAC42F8D170BDCC040020DA
:100E200010B5094C0948FFF7E9FF40F6C41208491C
:100E3000206800F0DDFC0028F4D040F6C410BDE8C6
:100E4000104000F00BBA00BFC8040020940200203C
:100E5000D436000838B5284C25462848FFF7CEFF81
:100E600041F288322649206800F0C2FC0028F4D004
:100E70002448FFF7C3FF41F288322149286800F077
:100E8000B7FC0028E9D02048FFF7B8FF41F28832CC
:100E90001B49286800F0ACFC0028DED01B48FFF797
:100EA000ADFF41F288321649286800F0A1FC002805
:100EB000D3D01748FFF7A2FF41F2883210492868C3
:100EC00000F096FC0028C8D01248FFF797FF41F2C7
:100ED00088321149286800F08BFC0028BDD00F48EB
:100EE000FFF78CFF41F288320D49286800F080FC42
:100EF0000028B2D038BD00BFC8040020E80100209F
:100F0000D43600089C02002050020020F801002086
:100F10001C02002060020020C836000830000020BB
:100F2000CC36000870B5174C43780678C5788078C1
:100F300084B08DE821000392029132461249204686
:100F400001F0A8FE204601F0C9FE104D02462346DE
:100F50000F49284601F09EFEFFF77CFF0D48FFF782
:100F60004DFF0D4B41F2883218680C4900F040FCEF
:100F70002846FFF743FF0A481A2104B0BDE8704035
:100F800000F0EABAD0040020600000200405002030
:100F90004801002038010020C8040020D83600088D
:100FA000E8090020F0B52A4D2A4A87B000232E68B0
:100FB000294F92E80300CDF80E300190ADF80810EB
:100FC000CDF80A30CDF81230ADF81630FFF742FFF9
:100FD0002248FFF713FF41F288322149386800F0B8
:100FE00007FC2048FFF70AFF1A211F4800F0B4FA57
:100FF00042F210721D49386800F0FAFB0028E5D073
:10100000002402E0144603F8140C386800F07CFA5F
:10101000E3B206A9262804F101020B44F2D106AB83
:10102000E4B21C44002740F6C41004F8147C00F01D
:1010300015F939460A2201A801F0D6FE2B680C4AA0
:101040009E1BA2FB063600EB9610013007B0F0BDE8
:1010500024040020B4360008C80400203801002011
:10106000D836000898000020E8090020DC36000887
:10107000D34D62100649074A074B9A42BEBF51F84A
:10108000040B42F8040BF8E7044880470448004783
:10109000EC3800080000002004040020591100086A
:1010A000490100081F49204A002301E041F8043BA0
:1010B0009142FBD3FFF7C6FCFEE7FEE7FEE7FEE743
:1010C000FEE7FEE7FEE7FEE7FEE7FEE7FEE7FEE7F8
:1010D000FEE7FEE7FEE7FEE7FEE7FEE7FEE7FEE7E8
:1010E000FEE7FEE7FEE7FEE7FEE7FEE7FEE7FEE7D8
:1010F000FEE7FEE7FEE7FEE7FEE7FEE7FEE7FEE7C8
:10110000FEE7FEE7FEE7FEE7FEE7FEE7FEE7FEE7B7
:10111000FEE7FEE7FEE7FEE7FEE7FEE7FEE7FEE7A7
:10112000FEE7FEE7040400209C0B0020704700BF90
:10113000FEE700BFFEE700BFFEE700BFFEE700BF1F
:10114000704700BF704700BF704700BF01F03EB955
:101150004FF48020FFF7B8B830B43C4B3C491868D6
:1011600082B040F0010018605D680020294059609D
:1011700019684FF41F0421F0847121F48031196043
:1011800019681A4621F480211960596821F4FE017A
:1011900059609C6000900190196841F48031196099
:1011A00003E0009BB3F5A06F09D0136803F400338C
:1011B0000193009B01330093019B002BF1D0234B43
:1011C0001B6813F4003318BF01230193019B012B0B
:1011D00006D0204B4FF000629A6002B030BC7047DE
:1011E0001D4A1A4B1068194640F010001060106834
:1011F00020F003001060106840F0020010605A6890
:101200005A605A685A605A6842F480625A605A6852
:1012100022F47C125A605A6842F4E8125A601A6842
:1012200042F080721A600B68084A9B01FBD5114698
:10123000536823F003035360536843F00203536081
:101240004B6803F00C03082BFAD1C2E700100240F0
:101250000000FFF800ED00E000200240024A1060AC
:101260001368002BFCD1704728040020054B1A6836
:1012700012B11A68013A1A60034A13680133136005
:10128000704700BF280400202404002008B5012175
:101290004FF0C050FFF752F90120FFF7C9F80120C5
:1012A000FFF7D2F84120FFF757F90028FAD04FF4A2
:1012B0008070FFF7D9F80120FFF7DEF8FFF7A8F9F3
:1012C000FFF79EF947F6FF70FFF786F9BDE8084083
:1012D000FFF796B930B5012185B00846FFF72EF922
:1012E000012400251C2368468DF800308DF802503B
:1012F0008DF801408DF80340FEF76AFF01A8FFF763
:10130000E7F942F20F72104B10481B6801A9A0FBCD
:1013100003035B0B013B4FF08040ADF80430ADF8A8
:101320000820ADF80650ADF80A50FFF77FF92246C5
:1013300021464FF08040FFF7EDF921464FF0804005
:10134000FFF7D0F905B030BDAC0200205917B7D176
:101350002DE9F04F012189B04FF48020FFF7EEF81E
:10136000DFF8A08101214FF48040FFF7D9F8012177
:101370000420FFF727F818260323404602A940223D
:101380008DF80A300193594FADF808208DF80B60A5
:101390004FF0040BFEF79EFF802202A94046ADF8F5
:1013A00008208DF80BB0FEF795FF04A80024FFF786
:1013B00015FA4FF00C094FF4165A04A93846CDF827
:1013C00010A0ADF81A90ADF81440ADF81640ADF885
:1013D0001840ADF81C40FFF7A3F938460121FFF78C
:1013E00009FA01250DEB090025228DF80C208DF856
:1013F0000E408DF80D408DF80F50FEF7E9FE2A469D
:10140000384640F22551FFF703FA2A46384640F2A3
:101410002771FFF7FDF9019B4FF4806202A9404656
:10142000ADF808208DF80A308DF80B60FEF752FFFA
:101430002F4E4FF4006302A94046ADF808308DF8F6
:101440000BB0FEF747FF04A8FFF7C8F904A9304620
:10145000CDF810A0ADF81A90ADF81440ADF81640D4
:10146000ADF81840ADF81C40FFF75AF92946304650
:10147000FFF7C0F927230DEB09008DF80C308DF82C
:101480000E408DF80D408DF80F50FEF7A1FE2A4654
:10149000304640F22551FFF7BBF92A46304640F26C
:1014A0002771FFF7B5F913481349144A144BA0F8F4
:1014B0004441A0F8464180F848410760A1F8444102
:1014C000A1F8464181F848410E60A2F84441A2F8D3
:1014D000464182F848411760A3F84441A3F84641C9
:1014E00083F848411E6009B0BDE8F08F0038014024
:1014F00000480040500700209C08002004060020FF
:10150000E8090020000C01400346B3F84411B3F889
:10151000462189B292B29142F7D0B3F84411B3F8A0
:10152000462189B292B2914213D0B3F8462192B2C9
:101530001A441079B3F84621C0B2013292B2B2F522
:10154000A07FA3F8462103D30022A3F846217047C9
:1015500070470020704700BF10B50446B0F8442122
:10156000B0F8443192B201339BB2B3F5A07FA0F83A
:10157000443124BF0023A0F84431B0F84401B4F84A
:10158000463180B29BB2984210D02244117120683B
:1015900040F22771FFF760F900B110BD2068012209
:1015A00040F22771BDE81040FFF732B90123A4F8DB
:1015B000442184F84831E8E7B0F84421B0F84631D6
:1015C00090B29BB2C01AB0FA80F04009704700BFD9
:1015D00038B540F225513348FFF73EF9002830D1A5
:1015E00040F227712F48FFF737F948B32E4BB3F875
:1015F0004411B3F8462189B292B2914241D0B3F876
:101600004411B3F8462189B292B2914241D0B3F865
:10161000462192B21A441179B3F84621C9B2013277
:1016200092B2B2F5A07FA3F8462129BF002289B269
:1016300089B2A3F846211B48BDE83840FFF704B93A
:1016400038BD1848FFF704F9184BC0B2B3F844117D
:10165000B3F8442189B2013292B2B2F5A07FA3F867
:10166000442124BF0022A3F84421B3F84441B3F835
:101670004621A4B292B294420C4D0CD00B44187186
:10168000AEE7002240F22771BDE838400548FFF779
:10169000BFB80021CFE70122A5F8441185F8482101
:1016A000ECE700BF0038014004060020500700208E
:1016B00030B540F2255183B04048FFF7CDF80028FF
:1016C0002FD140F227713D48FFF7C6F838B33C4BA5
:1016D000B3F84411B3F8462189B292B2914244D092
:1016E000B3F84411B3F8462189B292B2914244D082
:1016F000B3F8462192B21A441179B3F84621C9B21F
:10170000013292B2B2F5A07FA3F8462129BF002290
:1017100089B289B2A3F846212848FFF795F803B0AB
:1017200030BD2648FFF794F8264BC4B21B68052B42
:101730002BD0254B244DB3F84411B3F8442189B282
:10174000013292B2B2F5A07FA3F8442124BF002257
:10175000A3F84421B3F84401B3F8462180B292B211
:1017600090420CD00B441C71ABE7002240F2277171
:101770001248FFF74DF803B030BD0021CCE701223D
:10178000A5F8441185F84821ECE70A2C0DD001ADED
:1017900022460E49284601F07DFA284601F09EFABD
:1017A000C1B22846FFF72AF9C3E702AD0D2325F899
:1017B000043D28460121FFF721F9E9E700480040F0
:1017C000E8090020400400209C080020E8360008BA
:1017D000002A0BDD70B506460C468D1814F8011B67
:1017E0003046FFF7B9FEA542F8D170BD704700BF83
:1017F0002DE9F843054608468846914601F06EFA01
:1018000000221146254E37683368DB1B4B4536D224
:10181000B5F84441B5F84631A4B29BB29C42F3D02E
:10182000B5F84441B5F84631A4B29BB29C42F7D01A
:10183000B5F84441B5F84631A4B29BB29C4221D0E0
:10184000B5F846319BB22B441B79B5F84641DBB263
:101850000134A4B2B4F5A07FA5F8464101D3A5F8A0
:10186000461118F802409C4211D098F80020D21A74
:10187000B2FA82F233685209DB1B4B45C8D3002011
:10188000BDE8F88318F8024000239C42EDD10132F4
:101890009042B9D10120BDE8F88300BF24040020A4
:1018A00008B538B1064B1B681B689847054B18688C
:1018B0000A3008BD034B01221B681A8208BD00BF15
:1018C000640B0020680B002008B538B1064B1B687C
:1018D0009B689847054B18680C3008BD034B0122E4
:1018E0001B681A8208BD00BF640B0020680B002033
:1018F00008B51F4B002832D01E481A68002101800D
:10190000137813F07F0316D0012B27D0022B24D19C
:10191000527902F00F039B0003F1804303F5B843B3
:1019200012061B681FD403F44053B3F5805F0ED139
:10193000012303700BE0527A930654BF037802230D
:1019400051064CBF43F0010323F0010303700A4B1F
:101950001B681B699847074808BD084608BD1B68F7
:1019600002221A8208BD03F03003102BEFD1DFE70B
:10197000680B0020340B0020640B00202DE9F0419F
:10198000244F3C68258A2DB9267A042E2AD0A38AB2
:10199000042603E0A38A9D42FAD902269D4228BF6D
:1019A0001D46A369284698478046002001F0F4F8B8
:1019B0002A460146404600F0D3FD2946002001F0AA
:1019C00089F8638A228A1449521B1D44134B2282D0
:1019D000658230204FF440523C6808801A8026729D
:1019E000BDE8F0810E4B1A78012A06D00A4B10226E
:1019F00007261A802672BDE8F0810A490A4A09685A
:101A0000054889B20A445200156030223C681D70B6
:101A10000280E4E7680B0020700B00206E0B0020B2
:101A20002C040020505C0040023000200B4B0C4A7C
:101A30001B685178DA78914201D202207047997878
:101A40000029FAD110B59C880CB1022010BD0549BF
:101A50009A720B685B689847204610BD680B00209F
:101A600090030020640B002038B5104A104C126817
:101A70002368D97858799369984723689A7A0AB97C
:101A8000022038BD0028FBD11A79002AF8D19D78B0
:101A9000002DF5D1074B1B68DB6898472368284663
:101AA0005979DA78D9721A7338BD00BF400B00201B
:101AB000680B0020640B002038B5314B1B68187888
:101AC00010F07F0003D0022806D0022038BD5A7AD9
:101AD00022F020025A7238BD5A88002AF6D11A79AB
:101AE000002AF3D15A7922F080008400150604F10F
:101AF0008041244D01F5B84109682D784CBF01F0B3
:101B0000300101F44051A842DFD20029DDD09B7A98
:101B1000002BDAD004F1804404F5B844120623689F
:101B200009D503F03003102B1ED0174B1B685B69DF
:101B30009847002038BD03F44053B3F5805FF4D1DB
:101B4000D8B9124B93F82C1000F0D2FF236823F47D
:101B5000804323F070039BB283F4405343F400436B
:101B600043F080032360E0E7C4B2204600F0A0FF0A
:101B70002046302100F01CFFD7E700F087FFE5E7A3
:101B8000680B002090030020640B00200C03002051
:101B900038B5224B1868427922F080018C00150676
:101BA00004F180431E4D03F5B8431B682D784CBFEC
:101BB00003F0300303F44053A94201D3022038BD9F
:101BC00041880029FAD1002BF8D0837A002BF5D078
:101BD00004F1804404F5B8441206236811D523F4B7
:101BE000E04323F040039BB283F0100343F400432F
:101BF00043F0800323600B4B1B689B6998470020D0
:101C000038BD23F4804323F070039BB283F48053E8
:101C100043F4004343F080032360ECE7680B0020AB
:101C200090030020640B0020054B1B685A8A10B1FA
:101C300008681044704789888A1A1A82704700BF62
:101C4000680B002010B50C4B002093F82C1000F00E
:101C50004FFF0A4B1B68187A082806D10849094B20
:101C60004FF4805410220C801A80A0F10900B0FAC1
:101C700080F0400910BD00BF0C030020680B00205D
:101C80006E0B0020700B002070B5A24DA24A2B688D
:101C900011681A7A82B0092A3ED0A04A89B20A4451
:101CA00052001488640004F1804404F5C044227892
:101CB0001A702B6862785A70A0882E6800F090FF26
:101CC000708020892E6800F08BFFB080A2892B687D
:101CD0000121DA80197222B35878062800F0848036
:101CE00000283AD15988002900F098808C4C23684C
:101CF0001B699847032800F0EA804FF6FF722C68B2
:101D0000238A934200F08480022836D1082323726C
:101D1000FFF798FF02B070BDDA8801211972002A1E
:101D2000DAD11A785C7812F07F0236D0012A00F0FE
:101D3000BF80022A00F0E180794B20461B685B6976
:101D40009847032800F0C38000283ED02B68082263
:101D50001A72FFF777FF02B070BD082870D11A78A9
:101D60005206C3D16F4A00209A61588290474FF6BD
:101D7000FF722C68238A93424AD0002BC6D094F974
:101D80000020002A7FDB684A4FF440510323118072
:101D90002372FFF757FF02B070BD092C00F0E180FD
:101DA000052C00F09B80032C00F0CA80012CC3D1CD
:101DB000DA78012AC0D19A88002ABDD15B7A9B06C5
:101DC000BAD5FFF779FE0028B6D1534A574B1268AF
:101DD000002192B213445B001960554A30212B68F0
:101DE000118006221A72B4E71A7856067FF47EAF85
:101DF0009A784B4C012A00F0BA80022A6BD0032A51
:101E00007FF475AF2268526A002AACD106206EE7D3
:101E100009232372FFF716FF02B070BD5A6822F43F
:101E20007F42B2F5003F7FF461AF187810F07F0079
:101E300040F0A0809A88002A7FF458AF3D4A92E78C
:101E40000A287FF453AF1A7802F07F02012A7FF448
:101E50004DAF9A7A002A3FF449AF598800297FF4A0
:101E600045AF5A682E4C22F47F42B2F5803F7FF492
:101E70003EAF22685879936998472B68002840F054
:101E8000B6802D4A6FE7E288019201998B4217D8FC
:101E9000934276D2224A126892F82C108AB2934268
:101EA00074D2264B00211970A282FFF767FD70E7FC
:101EB0000B2C7FF441AFFFF7D7FD002885D03BE71F
:101EC000174B019A1B68228293F82C20ECE72B68B1
:101ED00009221A723DE72268126A95E793F90320F6
:101EE000002A07DB9A782AB99A881AB99A7A002ABE
:101EF0003FF46BAF08221A722BE7012C3FF461AF5D
:101F0000032C7FF419AFFFF743FE00283FF45DAFC9
:101F100012E700BF680B0020505C00400430002036
:101F2000400B0020A11800086E0B0020023000209A
:101F3000700B0020F1180008C91800082C040020BC
:101F4000DA78012A7FF4F8AE9A88002A7FF4F4AE9A
:101F50005A7A284942F0200209685A72CB69984798
:101F600033E7FFF763FD00283FF42FAFE4E6226874
:101F7000D26949E701282FD0022811D008461E4C0B
:101F8000B5E61D4B1B6893F82C208DE793FBF1F011
:101F900001FB1033002B87D1184B0121197083E707
:101FA000587900F00F018A00040602F18042144CB7
:101FB00002F5B842126824784CBF02F0300202F4F5
:101FC0004052A14206D210F0700003D1002A7FF4E3
:101FD00035AF8BE6002089E6074C58792268936973
:101FE00098472B6818B99A7A002A7FF427AF587857
:101FF0007DE600BF640B0020400B00202C04002075
:1020000090030020F8B5304D2C68237A022B07D0BE
:10201000042B05D0032B09D0052B07D0072B33D079
:1020200008232372BDE8F840FFF70CBEA369228A9B
:10203000B3B1B2B1A68A964228BF16463046984739
:10204000228A638A921B33440746228263820020DD
:1020500000F0B2FD32460146384600F095FA228A79
:10206000CAB9A38A33B319492A68194B06201072DA
:102070001A68184B92B213445B0000221A602C6855
:102080003022237A0A80CCE7134B1B68DB68984721
:102090002C680823C5E7114B00214FF44052084635
:1020A0001A8000F017FD238AA28A084930209A423C
:1020B000088003D82C6803232372B2E7002BD3D007
:1020C0002C6805232372ACE7680B0020700B0020FE
:1020D000505C004002300020400B00206E0B0020BE
:1020E000F8B5234C23681A7A022A17D0042A15D08F
:1020F000062A05D008221A72BDE8F840FFF7A2BDF3
:102100005A78052A13D01B4B1B689B689847236895
:1021100008221A72BDE8F840FFF794BDFFF72EFCC5
:1021200023681A7A1A72BDE8F840FFF78BBD1A7857
:1021300012F07F02E7D11049DF780E7876B10F48B0
:1021400040F60F73056842F400412B4041F08001D6
:1021500001320B43964240F8043BF1D1084A47F064
:102160008007084B17601B681B6A9847CBE700BFC6
:10217000680B0020400B002090030020005C004012
:102180004C5C0040640B002070B40C4B1E787EB198
:102190000B4C002240F60F73256842F400412B409F
:1021A00041F0800101320B43964244F8043BF1D1E7
:1021B000044B40F08000186070BC70479003002012
:1021C000005C00404C5C0040704700BF014B0122A6
:1021D0001A60704714000020084B10B5012203203C
:1021E0001A6000F0FBFC0346054C024623604FF4E6
:1021F00088710448BDE8104000F0C6B91500002001
:10220000380B00205804002070B4074A07490848DA
:10221000084E094C094B0225157208602360326094
:102220001B6870BC184700BF480B0020640B0020DF
:102230003C030020680B0020400B00200C03002012
:102240002DE9F04FDFF878A1DFF878915746C846BE
:1022500085B00023DFF870B1544DADF80E30DBF8D7
:102260000030534C99B21B04524E504AAAF8001049
:1022700040F190803B8803F00F03990001F1804109
:1022800001F5B84189F80030002B2FD14BF6BF7310
:10229000216889B22980298801F03001318029889C
:1022A00001F44051298021680B4083F4005383F0EE
:1022B000200343F4004343F0800323603B88D906A6
:1022C00041D523689BB2ADF80E30BDF80E301B052A
:1022D00063D4BDF80E301804C1D540F68F73019257
:1022E00021680B402360FFF78DFE34E00B689BB242
:1022F000ADF80E30BDF80E30180417D4BDF80E300E
:102300001A06ACD548F60F7299F800302A499B009E
:1023100003F1804303F5B843186802401A6099F846
:102320000030013B51F82330984798E740F68F730F
:102330000868224A03400B6098F80030013B52F8CD
:1023400023309847DAE748F60F73019221680B4073
:102350002360FFF7C5FE4BF6BF73019A2068118812
:1023600012880340C90448BF83F48053970432881D
:1023700048BF83F40053D506328848BF83F010036A
:10238000940648BF83F0200343F40043084A43F017
:102390008003136005B0BDE8F08F40F68F730192A3
:1023A00021680B402360FFF76FFCD4E76E0B002021
:1023B000005C0040700B0020CC020020E8020020EE
:1023C000720B0020440B0020445C004030B559499A
:1023D000594C0B68594D9BB2238022882B8889B0B9
:1023E0001A40920508D54FF6FF5355480B60027806
:1023F0002B880132D2B20270228802F400421342CA
:1024000040F09480228802F48062134240F085807C
:10241000228802F40052134204D04DF6FF72454B5D
:102420001A602B88228802F4805213426CD12288D1
:1024300002F4006213420BD0424B1B78002B60D198
:10244000022000F033FA4FF2FF723A4B1A602B88E9
:10245000228802F4807213420DD04FF6FF61354A94
:10246000394B11601B6813F4004306D1374A1360DF
:10247000072000F01BFA09B030BD34490B68013366
:102480000B600B68032BF3D952F8043C043A13F0A9
:102490000803EDD112682E4D92B22E482A6050F8F2
:1024A000042B08AC04EB8304013392B2082B44F8EC
:1024B000202CF4D12B68284A43F001032B602B68B1
:1024C0001C489BB213602B6823F001032B602B6820
:1024D0009BB213600368174A5B05FBD54FF6FF33C9
:1024E0001C481360002308AA02EB830252F8202C38
:1024F000013392B2082B40F8042BF4D100230B6077
:10250000B6E700F07BF99EE74EF6FF72094B00201C
:102510001A6000F0CBF92B8889E74FF6FF31054AA6
:102520000E4B11605B6898472B8871E7FFF788FEB8
:102530002B8867E7445C0040720B00206C0B002086
:102540003404002092030020485C0040380400203E
:1025500030040020005C0040405C00400C03002080
:10256000013252100ED010B401F1005101F540516A
:102570004900002330F8024B21F8234001339A42EE
:10258000F8D110BC704700BF01F10051013201F5D4
:10259000405152104FEA410105D051F8043B013A35
:1025A00020F8023BF9D17047034B9B7A13B1034BE0
:1025B00005221A60704700BF480B0020400400202D
:1025C000014B04221A60704740040020034B1A7824
:1025D000202A04BF00221A70704700BF3C0400206C
:1025E000704700BF212810B504D02028034610D022
:1025F000022010BD0E4B1A68137803F07F03212BC5
:10260000F6D10C4900249161548220468847204627
:1026100010BD074A1268117801F07F01212903D00B
:10262000054A0220137010BD034804490370E9E70E
:10263000680B00208D2600083C0400207526000849
:10264000074B1B681B7803F07F03212B01D002206E
:10265000704700F0DF00022814BF022000207047FE
:10266000680B002009B10220704701288CBF0220AE
:102670000020704708B103487047034B08221B68CD
:102680001A82704788030020680B0020FFF7F2BF12
:1026900010B5FEF793F9054B00241B689C7200F0FF
:1026A00095F800F0A3FA024B1C6010BD680B0020E7
:1026B0004004002010B5334B334A1B68D279002404
:1026C0005A729C72DC72204600F05CF920464FF48E
:1026D000007100F05FF92046102100F069F92046F2
:1026E000402100F049FA8021204600F033FA2046CC
:1026F00000F0CAF9254B204693F82C1000F0F8F9A9
:10270000204600F09DF92146012000F043F9C02148
:10271000012000F01FFA2021012000F049F9214694
:10272000012000F05FF94FF4C061022000F032F99F
:102730004FF48071022000F00DFA2146022000F0D3
:1027400051F92021022000F033F92146032000F046
:1027500021F94FF48871032000F00EFA4021032084
:1027600000F0C6F94FF44051032000F03BF9214638
:10277000032000F01DF92046FFF706FD044B01225F
:102780001A6010BD680B0020603700080C030020A1
:10279000400400200149FFF747BA00BF6003002052
:1027A0000149FFF741BA00BF04030020054B1B6835
:1027B000DB78042B04D8044901EBC301FFF734BADA
:1027C00000207047680B00206803002038B5012006
:1027D000FEF7E8F8064D074B074C00224FF4E05196
:1027E000012018601A602A6021801960104638BDE7
:1027F000445C0040405C00406C0B0020F0B5264B70
:1028000026491C682648A4B2002351F8042B92B232
:1028100040F823200133082BF7D144F4806224F0E0
:1028200001054FF6FF3714461B4BADB21D4E45F464
:10283000806E42F0010219491C601A60C3F800E082
:102840000023376050F82320013392B2082B41F85F
:10285000042BF7D1104A45F48165156013681149BE
:102860009BB243F0040313600B68DB040DD54EF6F6
:10287000FF704FF6F773086010680B490340136050
:102880000B6923F004030B61F0BD074A136923F0C1
:1028900004031361F0BD00BF405C0040005C0040D9
:1028A000780B0020445C004000ED00E070B5324C35
:1028B000072818BF20702378052B4BD8DFE803F0DA
:1028C000181F30353F0363782B49013BDBB263703F
:1028D000637803F0FF02002B3ED14FF6EF732748D9
:1028E000274C06680625334003600D70226070BDDA
:1028F000234B1B68002B30D00523237070BD4FF68F
:10290000FB731E4D2A6813402B60FEF719F81C4B11
:102910004FF43F4004210122286021701A6070BDED
:10292000022203236270237070BD6378124A013B58
:10293000DBB2637063787BB90423137070BD0F4AF8
:10294000052013680A219BB243F010031360207026
:10295000617070BD0623237070BD4FF6FB73074D89
:102960002A6813402B60FDF7EBFF4FF43F4206232C
:102970002A60237070BD00BF740B0020405C0040D3
:10298000440400204FF6F873014A03401360704777
:10299000505C0040800000F1804000F5B8400368C2
:1029A00023F4EC4323F07003194389B201607047AC
:1029B000800000F1804000F5B8400368CA0623F4A7
:1029C000E04323F040039BB248BF83F010038A0624
:1029D00048BF83F0200343F4004343F080030360C7
:1029E000704700BF800000F1804000F5B8400368E8
:1029F000CA0423F4804323F070039BB248BF83F4DE
:102A000080538A0448BF83F4005343F4004343F0E7
:102A100080030360704700BF800000F1804000F534
:102A2000B840036823F4E04323F040039BB283F0F3
:102A3000300343F4004343F080030360704700BF5A
:102A4000800000F1804000F5B840036823F4804323
:102A500023F070039BB283F4405343F4004343F0EC
:102A600080030360704700BF40F60F62800000F1F2
:102A7000804000F5B8400368134043F4004343F03E
:102A800080030360704700BFFFF7EEBF800000F1D6
:102A9000804000F5B84003685B0408D540F60F732A
:102AA0000268134043F4404343F0800303607047DF
:102AB000800000F1804000F5B84003685B0608D54F
:102AC00040F60F730268134043F4004343F0C00321
:102AD00003607047044A054B126892B202EBC000D3
:102AE00003445B0019607047505C004002300020D6
:102AF0000E4A0F4B12683E2992B202EBC00003440B
:102B00004FEA43030AD94A09C80604BF02F1FF325B
:102B100092B2920242F400421A6070474A08C90712
:102B200048BF013292021A60704700BF505C0040FB
:102B300006300020064B49081B6849009BB203EB96
:102B4000C00000F1005000F54050400001607047A7
:102B5000505C0040FFF7EEBF054A064B126849087B
:102B600092B202EBC000034449005B001960704759
:102B7000505C004004300020FFF7EEBF054B1B689F
:102B80009BB203EBC00000F1005000F54050400044
:102B900000887047505C0040FFF7F0BF044A054BC7
:102BA000126892B202EBC00003445B0018887047C1
:102BB000505C004004300020FFF7F0BF054A064B90
:102BC000126892B202EBC00003445B001868C0F3C5
:102BD00009007047505C004006300020FFF7EEBF50
:102BE000C3B2000A40EA0320704700BF10B4054991
:102BF000054C064A00204FF43F4320600B801360D1
:102C000010BC70476C0B0020445C0040405C0040EE
:102C100008B5074B044613B10021AFF30080054B04
:102C20001868836A03B19847204600F0FFFC00BF94
:102C300000000000A83700080E4B70B51E460E4C71
:102C40000025E41AA410A54204D056F82530984770
:102C50000135F8E700F0ECFC084B094C1E46E41A7D
:102C6000A4100025A54204D056F825309847013518
:102C7000F8E770BDFC030020FC030020FC030020EB
:102C80000004002003460244934202D003F8011BD3
:102C9000FAE770470EB400B54FF402719CB0ADF87E
:102CA00014106FF00041049107914FF6FF711DABB6
:102CB00002900690084853F8042BADF816100068EF
:102CC00002A9019300F0F4F8029B00221A701CB0D4
:102CD0005DF804EB03B07047F4030020034613F8DB
:102CE000012B002AFBD1181A013870472DE9F04753
:102CF0000E4680463B48D0F80090354615F8014B0B
:102D000009EB0400407800F0080000F0FF0708B16C
:102D10002E46F2E72D2C03D1B51C7478012703E071
:102D20002B2C04BF7478B51C13B1102B0AD153E0BF
:102D3000302C4FD1287800F0DF00582845D16C782E
:102D4000102302354FF0FF3CBCFBF3FC03FB0CFAF5
:102D500000266FEA0A0A304609EB040E9EF801E0ED
:102D60001EF0040F01D0303C0BE01EF0030E1AD011
:102D7000BEF1010F0CBF4FF0370E4FF0570ECEEBE8
:102D80000404A3420FDD002E08DB604506D801D104
:102D9000544503DC03FB0040012601E04FF0FF3601
:102DA00015F8014BD8E7002E07DA2223C8F80030C7
:102DB0004FF0FF302AB9BDE8F08707B1404272B149
:102DC00006B1691E1160BDE8F0873024002BB9D12F
:102DD0000823B7E70A23B5E7302CABD0B2E7BDE84C
:102DE000F08700BFF803002013460A460146024858
:102DF0000068FFF77BBF00BFF40300202DE9F04718
:102E00008E6882469E420C46914698463ED88A89F4
:102E100012F4906F3AD02568096902236F1A656928
:102E200005EB450595FBF3F57B1C43449D4238BFFC
:102E30001D4653050FD5294600F04AFB064698B1BA
:102E40003A46216900F0D2FAA38923F4906343F053
:102E50008003A38113E02A4600F098FB064670B970
:102E60002169504600F0E8FA0C23CAF80030A38923
:102E70004FF0FF3043F04003A381BDE8F0872661A7
:102E80003E44266046466561ED1BA560464528BF69
:102E9000464649463246206800F0B3FAA36800204F
:102EA0009B1BA36023681E442660BDE8F0870000DA
:102EB0002DE9F04F9DB003938B8980461C060D468B
:102EC00016460DD50B695BB9402100F001FB286067
:102ED000286118B90C23C8F80030CDE040236B619D
:102EE0000023099320238DF82930DFF89CB130238B
:102EF0008DF82A3037463C4614F8013B1BB9B7EB36
:102F0000060910D003E0252BF9D02746F3E74B46FE
:102F1000324629464046FFF771FF013000F0A78096
:102F2000099B4B4409933B78002B00F0A0800023C1
:102F30004FF0FF3204930793059206938DF85330B8
:102F40001A930126052221784E4800F041FA671CA9
:102F5000049B38B14B4A3C46801A06FA00F01843ED
:102F60000490EFE7D90644BF20228DF853201A07BA
:102F700044BF2B228DF8532022782A2A03D0079AA7
:102F800000210A200BE0039A111D12680391002A08
:102F900010DA524243F00200079204900BE02746F9
:102FA0003B780134303B092B03D800FB023201216E
:102FB000F5E701B107923B782E2B1ED17B782A2BA7
:102FC0000AD1039B02371A1D1B680392002BB8BF5E
:102FD0004FF0FF33059310E0002319460593781C4A
:102FE0000A2407463A780130303A092A03D804FB0C
:102FF00001210123F5E703B1059103223978224825
:1030000000F0E6F940B14023CBEB000003FA00F0FA
:10301000049B013718430490397806221B487E1C14
:103020008DF8281000F0D4F988B1194B33B9039BFF
:10303000073323F007030833039314E003AB009333
:103040002A46144B04A94046AFF3008007E003ABC7
:1030500000932A460F4B04A9404600F093F8B0F1C4
:10306000FF3F824603D0099B5344099342E7AB8953
:103070005B0601D4099801E04FF0FF301DB0BDE8B8
:10308000F08F00BFAD380008B3380008B73800082B
:1030900000000000FD2D00082DE9F04791461F4675
:1030A0000A698B6806469342B8BF1346C9F80030D8
:1030B00091F843200C46DDF8208012B10133C9F8A5
:1030C00000302368990642BFD9F800300233C9F8AE
:1030D0000030256815F0060510D104F1190A07E043
:1030E0000123524639463046C04701301AD00135D7
:1030F000E368D9F800209B1A9D42F1DB94F8433035
:103100002268003318BF012392060FD5E118302042
:1031100081F843005A1C94F845102244023382F887
:10312000431003E04FF0FF30BDE8F08704F14302A5
:1031300039463046C0470130F4D02268D9F80050F3
:10314000E36802F00602042A08BF5D1B2269A36837
:103150000CBF25EAE57500259342C4BF9B1AED1804
:103160004FF000091A344D4509D001232246394653
:103170003046C0470130D5D009F10109F3E70020FE
:10318000BDE8F0872DE9F04317460A7E85B06E2A28
:10319000984606460C460C9B01F1430E00F0AE80AB
:1031A00011D8632A22D009D8002A00F0BB80582AFF
:1031B00040F0CA8081F84520834955E0642A1ED03A
:1031C000692A1CD0C0E0732A00F0B08009D86F2AA9
:1031D0002ED0702A40F0B8800A6842F020020A60BF
:1031E0003EE0752A24D0782A3AD0ADE01A6801F181
:1031F0004205111D1960136884F84230A8E0216867
:103200001A6811F0800F02D0111D196008E011F04A
:10321000400F02F10401196002D0B2F9003000E061
:103220001368002B3CDA2D225B4284F8432037E000
:1032300021681A6811F0800F02D0111D196007E093
:1032400011F0400F02F10401196001D0138800E071
:103250001368227E5C496F2A14BF0A2208221BE0F1
:1032600078225A4984F845202268186812F0800FA5
:1032700000F104051D6003D1550601D5038800E067
:103280000368D00744BF42F0200222601BB92268C5
:1032900022F0200222601022002084F8430001E086
:1032A00049490A226568002DA56008DB206820F0E6
:1032B000040020602BB9002D7DD175460CE0002B59
:1032C00079D07546B3FBF2F002FB1033CB5C05F806
:1032D000013D03460028F5D1082A0BD12368DA07FF
:1032E00008D5236962689A42DEBF302305F8013CA5
:1032F00005F1FF35C5EB0E0323612EE008681A685F
:1033000010F0800F496903D0101D1860136808E0A1
:1033100010F0400F02F104001860136801D019800A
:1033200000E0196000232361754616E01A68111D3C
:103330001960156800216268284600F049F808B154
:10334000401B6060636804E004F1420584F8422099
:1033500001232361002384F84330CDF800803B46ED
:1033600003AA21463046FFF797FE013002D14FF005
:10337000FF3026E023692A4639463046C0470130EF
:10338000F5D023689B0710D5002504F1190907E043
:1033900001234A4639463046C0470130E7D001355F
:1033A000E368039A9B1A9D42F2DBE068039B984214
:1033B000B8BF184605E00B7804F1420584F84230A6
:1033C0008AE705B0BDE8F083BE380008CF380008B2
:1033D00010B5C9B202449042034605D01C780130B2
:1033E0008C42F8D1184610BD002010BD10B5431E08
:1033F0000A44914204D011F8014B03F8014FF8E759
:1034000010BD884210B501EB020301D8421E0BE04B
:103410009842FBD28118D21AD34204D013F8014D3E
:1034200001F8014DF8E710BD994204D011F8014BA5
:1034300002F8014FF8E710BD38B50546002944D021
:1034400051F8043C0C1F002BB8BFE41800F0D4F86E
:103450001E4A1368114613B96360146030E0A3423A
:103460000DD92268A018834201BF18685B68121842
:10347000226063600C6023E0A24203D813465A68BE
:10348000002AF9D118681918A1420BD1216801440A
:1034900058188242196013D11068526801441960AB
:1034A0005A600DE002D90C232B6009E021686018F6
:1034B000824201BF106852680918216062605C6036
:1034C0002846BDE8384000F098B838BD4C040020CC
:1034D00070B5CD1C25F0030508350C2D38BF0C2523
:1034E000002D064601DBA94202D90C23336046E0D9
:1034F00000F082F8234B1C681A462146A1B10B68E4
:103500005B1B0ED40B2B03D90B60CC18CD501EE0E7
:103510008C420BBF63684B681360636018BF0C4636
:1035200015E00C464968E9E7174C23681BB930469B
:1035300000F052F820602946304600F04DF8431C58
:1035400018D0C41C24F00304A0420DD125603046DD
:1035500000F053F804F10B00231D20F00700C31AFC
:103560000ED05A42E25070BD211A304600F034F8B5
:103570000130EBD10C233360304600F03EF80020E0
:1035800070BD00BF4C04002048040020F8B5074679
:1035900015460E4621B91146BDE8F840FFF798BF21
:1035A0001AB9FFF749FF2846F8BD00F027F8854211
:1035B0000ED929463846FFF78BFF044650B13146F5
:1035C0002A46FFF713FF31463846FFF735FF01E083
:1035D0003046F8BD2046F8BD38B5064C00230546F8
:1035E0000846236000F014F8431C02D1236803B19D
:1035F0002B6038BD980B00207047704751F8040CC1
:103600000028BEBF091851F8043CC01804387047A0
:10361000044B0246196809B9034919601868024445
:103620001A60704750040020A00B0020FEE7000045
:10363000F8B500BFF8BC08BC9E467047F8B500BF9F
:10364000F8BC08BC9E4670475B256C645D20524602
:1036500049442044657465637465643A20253032BA
:10366000782530327825303278253032780D0A00CE
:103670005B256C645D2053656E64696E67206461D0
:1036800074612E2E2E0D0A00256C64005B256C647F
:103690005D20446174612073656E742E0D0A000014
:1036A0005B256C645D2050494E472073656E740D38
:1036B0000A000000393939393900000000000000E3
:1036C00000000000000000002E000000434F4E4E9E
:1036D000454354204F4B00003E00000074696D6567
:1036E0007374616D703D0000256300002603530074
:1036F00054004D006900630072006F0065006C00AB
:1037000065006300740072006F006E006900630062
:1037100073000000120100020200004083044057C1
:1037200000020102030100000403090432035300F4
:1037300054004D0033003200200056006900720032
:103740007400750061006C00200043004F004D00C4
:10375000200050006F007200740020002000000064
:1037600009024300020100C0320904000001020204
:1037700001000524001001052401000104240202B7
:103780000524060001070582030800FF0904010063
:10379000020A00000007050302400000070581023D
:1037A000400000430000000094030020002020207F
:1037B00020202020202028282828282020202020E1
:1037C00020202020202020202020202020881010B1
:1037D000101010101010101010101010100404040D
:1037E00004040404040404101010101010104141CB
:1037F00041414141010101010101010101010101B9
:1038000001010101010101011010101010104242CC
:103810004242424202020202020202020202020288
:103820000202020202020202101010102000000028
:103830000000000000000000000000000000000088
:103840000000000000000000000000000000000078
:103850000000000000000000000000000000000068
:103860000000000000000000000000000000000058
:103870000000000000000000000000000000000048
:103880000000000000000000000000000000000038
:103890000000000000000000000000000000000028
:1038A00000000000000000000000000000232D3098
:1038B0002B2000686C4C0065666745464700303138
:1038C0003233343536373839414243444546003087
:1038D00031323334353637383961626364656600B6
:0438E00000000000E4
:0838E40064C8FF7F0100000031
:1038EC0002040608000000000102030401020304A4
:1038FC0006070809010100002D2D2D44656275672E
:10390C00206C6F672073746172742D2D2D0D0A005D
:10391C0041542B43495053544152543D225443502B
:10392C00222C226774632E617269656661746B6800
:10393C0075722E7765622E6964222C38300D0A0060
:10394C00726669643D253032782530327825303204
:10395C00782530327826676174653D257326746945
:10396C006D653D256C64000041542B434950434C1C
:10397C004F53450D0A000000474554202F626F74C9
:10398C002F6765745F7365727665725F74696D65B8
:10399C002E70687020485454502F312E310D0A4827
:1039AC006F73743A206774632E6172696566617413
:1039BC006B6875722E7765622E69640D0A436F6EA3
:1039CC006E656374696F6E3A20636C6F73650D0A74
:1039DC00436F6E74656E742D547970653A20617006
:1039EC00706C69636174696F6E2F782D7777772DA2
:1039FC00666F726D2D75726C656E636F6465640DA8
:103A0C000A436F6E74656E742D4C656E6774683AFC
:103A1C0020300D0A0D0A000041542B4349505345E8
:103A2C004E440D0A00000000504F5354202F626F7B
:103A3C00742F676174655F656E7472792E7068702F
:103A4C0020485454502F312E310D0A486F73743A5C
:103A5C00206774632E617269656661746B68757238
:103A6C002E7765622E69640D0A436F6E6E65637402
:103A7C00696F6E3A20636C6F73650D0A436F6E74D9
:103A8C00656E742D547970653A206170706C696341
:103A9C006174696F6E2F782D7777772D666F726DE5
:103AAC002D75726C656E636F6465640D0A436F6E81
:103ABC0074656E742D4C656E6774683A2025640DC0
:103ACC000A0D0A25730D0A0041542B4349505348E3
:103ADC0055540D0A0000000041542B435354543DDF
:103AEC0022696E7465726E6574222C227761702265
:103AFC002C22776170313233220D0A0041542B4352
:103B0C00494943520D0A0000726669643D383666B5
:103B1C00666563643526676174653D312674696D2D
:103B2C00653D3135303636303232393000000000E8
:103B3C0041542B43474154543D310D0A00000000C1
:103B4C0041542B43494653520D0A00007266696476
:103B5C003D653239363032303726676174653D3118
:103B6C002674696D653D3135303636303232393038
:103B7C000000000041540D0A0000000041542B438A
:103B8C0049504D55583D300D0A00000000A24A0422
:103B9C001A03530054004D003300320000000000A3
:103BAC00000000000000000000000000CD21000813
:103BBC00C9210008C9210008C9210008C921000831
:103BCC00C9210008C9210008C9210008C921000821
:103BDC00D9210008C9210008C9210008C921000801
:103BEC00C921000860370008430000009126000836
:103BFC00B5260008CD250008E1250008E5250008BC
:103C0C00412600086526000895270008A127000812
:103C1C00AD2700080000000040000000C92100088A
:103C2C00A9250008C9210008C9210008C9210008DC
:103C3C00C9210008C9210008C9210008C1250008B4
:103C4C001437000812000000283700080400000098
:103C5C00EC360008260000002C370008320000006B
:103C6C00B00200201A00000000C201000000080091
:103C7C000401010000000000000000000000000032
:103C8C000000000000000000000000000000000028
:103C9C0000000000A3370008000000000000000036
:103CAC000000000000000000000000000000000008
:103CBC0000000000000000000000000000000000F8
:103CCC0000000000000000000000000000000000E8
:103CDC000000000094030020AC370008110100081C
:043CEC00ED000008DF
:0400000508000000EF
:00000001FF
